{
  "contractName": "DeepNFT",
  "abi": [
    {
      "inputs": [
        {
          "internalType": "address",
          "name": "_chaosAddress",
          "type": "address"
        }
      ],
      "stateMutability": "nonpayable",
      "type": "constructor"
    },
    {
      "anonymous": false,
      "inputs": [
        {
          "indexed": true,
          "internalType": "address",
          "name": "owner",
          "type": "address"
        },
        {
          "indexed": true,
          "internalType": "address",
          "name": "approved",
          "type": "address"
        },
        {
          "indexed": true,
          "internalType": "uint256",
          "name": "tokenId",
          "type": "uint256"
        }
      ],
      "name": "Approval",
      "type": "event"
    },
    {
      "anonymous": false,
      "inputs": [
        {
          "indexed": true,
          "internalType": "address",
          "name": "owner",
          "type": "address"
        },
        {
          "indexed": true,
          "internalType": "address",
          "name": "operator",
          "type": "address"
        },
        {
          "indexed": false,
          "internalType": "bool",
          "name": "approved",
          "type": "bool"
        }
      ],
      "name": "ApprovalForAll",
      "type": "event"
    },
    {
      "anonymous": false,
      "inputs": [
        {
          "indexed": false,
          "internalType": "address",
          "name": "account",
          "type": "address"
        }
      ],
      "name": "Paused",
      "type": "event"
    },
    {
      "anonymous": false,
      "inputs": [
        {
          "indexed": true,
          "internalType": "bytes32",
          "name": "role",
          "type": "bytes32"
        },
        {
          "indexed": true,
          "internalType": "bytes32",
          "name": "previousAdminRole",
          "type": "bytes32"
        },
        {
          "indexed": true,
          "internalType": "bytes32",
          "name": "newAdminRole",
          "type": "bytes32"
        }
      ],
      "name": "RoleAdminChanged",
      "type": "event"
    },
    {
      "anonymous": false,
      "inputs": [
        {
          "indexed": true,
          "internalType": "bytes32",
          "name": "role",
          "type": "bytes32"
        },
        {
          "indexed": true,
          "internalType": "address",
          "name": "account",
          "type": "address"
        },
        {
          "indexed": true,
          "internalType": "address",
          "name": "sender",
          "type": "address"
        }
      ],
      "name": "RoleGranted",
      "type": "event"
    },
    {
      "anonymous": false,
      "inputs": [
        {
          "indexed": true,
          "internalType": "bytes32",
          "name": "role",
          "type": "bytes32"
        },
        {
          "indexed": true,
          "internalType": "address",
          "name": "account",
          "type": "address"
        },
        {
          "indexed": true,
          "internalType": "address",
          "name": "sender",
          "type": "address"
        }
      ],
      "name": "RoleRevoked",
      "type": "event"
    },
    {
      "anonymous": false,
      "inputs": [
        {
          "indexed": true,
          "internalType": "address",
          "name": "from",
          "type": "address"
        },
        {
          "indexed": true,
          "internalType": "address",
          "name": "to",
          "type": "address"
        },
        {
          "indexed": true,
          "internalType": "uint256",
          "name": "tokenId",
          "type": "uint256"
        }
      ],
      "name": "Transfer",
      "type": "event"
    },
    {
      "anonymous": false,
      "inputs": [
        {
          "indexed": false,
          "internalType": "address",
          "name": "account",
          "type": "address"
        }
      ],
      "name": "Unpaused",
      "type": "event"
    },
    {
      "inputs": [],
      "name": "DEFAULT_ADMIN_ROLE",
      "outputs": [
        {
          "internalType": "bytes32",
          "name": "",
          "type": "bytes32"
        }
      ],
      "stateMutability": "view",
      "type": "function",
      "constant": true
    },
    {
      "inputs": [],
      "name": "MINTER_ROLE",
      "outputs": [
        {
          "internalType": "bytes32",
          "name": "",
          "type": "bytes32"
        }
      ],
      "stateMutability": "view",
      "type": "function",
      "constant": true
    },
    {
      "inputs": [],
      "name": "PAUSER_ROLE",
      "outputs": [
        {
          "internalType": "bytes32",
          "name": "",
          "type": "bytes32"
        }
      ],
      "stateMutability": "view",
      "type": "function",
      "constant": true
    },
    {
      "inputs": [
        {
          "internalType": "address",
          "name": "to",
          "type": "address"
        },
        {
          "internalType": "uint256",
          "name": "tokenId",
          "type": "uint256"
        }
      ],
      "name": "approve",
      "outputs": [],
      "stateMutability": "nonpayable",
      "type": "function"
    },
    {
      "inputs": [
        {
          "internalType": "address",
          "name": "owner",
          "type": "address"
        }
      ],
      "name": "balanceOf",
      "outputs": [
        {
          "internalType": "uint256",
          "name": "",
          "type": "uint256"
        }
      ],
      "stateMutability": "view",
      "type": "function",
      "constant": true
    },
    {
      "inputs": [
        {
          "internalType": "uint256",
          "name": "tokenId",
          "type": "uint256"
        }
      ],
      "name": "burn",
      "outputs": [],
      "stateMutability": "nonpayable",
      "type": "function"
    },
    {
      "inputs": [
        {
          "internalType": "address",
          "name": "newOwner",
          "type": "address"
        }
      ],
      "name": "changeOwner",
      "outputs": [],
      "stateMutability": "nonpayable",
      "type": "function"
    },
    {
      "inputs": [
        {
          "internalType": "uint256",
          "name": "tokenId",
          "type": "uint256"
        }
      ],
      "name": "getApproved",
      "outputs": [
        {
          "internalType": "address",
          "name": "",
          "type": "address"
        }
      ],
      "stateMutability": "view",
      "type": "function",
      "constant": true
    },
    {
      "inputs": [
        {
          "internalType": "bytes32",
          "name": "role",
          "type": "bytes32"
        }
      ],
      "name": "getRoleAdmin",
      "outputs": [
        {
          "internalType": "bytes32",
          "name": "",
          "type": "bytes32"
        }
      ],
      "stateMutability": "view",
      "type": "function",
      "constant": true
    },
    {
      "inputs": [
        {
          "internalType": "bytes32",
          "name": "role",
          "type": "bytes32"
        },
        {
          "internalType": "uint256",
          "name": "index",
          "type": "uint256"
        }
      ],
      "name": "getRoleMember",
      "outputs": [
        {
          "internalType": "address",
          "name": "",
          "type": "address"
        }
      ],
      "stateMutability": "view",
      "type": "function",
      "constant": true
    },
    {
      "inputs": [
        {
          "internalType": "bytes32",
          "name": "role",
          "type": "bytes32"
        }
      ],
      "name": "getRoleMemberCount",
      "outputs": [
        {
          "internalType": "uint256",
          "name": "",
          "type": "uint256"
        }
      ],
      "stateMutability": "view",
      "type": "function",
      "constant": true
    },
    {
      "inputs": [
        {
          "internalType": "bytes32",
          "name": "role",
          "type": "bytes32"
        },
        {
          "internalType": "address",
          "name": "account",
          "type": "address"
        }
      ],
      "name": "grantRole",
      "outputs": [],
      "stateMutability": "nonpayable",
      "type": "function"
    },
    {
      "inputs": [
        {
          "internalType": "bytes32",
          "name": "role",
          "type": "bytes32"
        },
        {
          "internalType": "address",
          "name": "account",
          "type": "address"
        }
      ],
      "name": "hasRole",
      "outputs": [
        {
          "internalType": "bool",
          "name": "",
          "type": "bool"
        }
      ],
      "stateMutability": "view",
      "type": "function",
      "constant": true
    },
    {
      "inputs": [
        {
          "internalType": "address",
          "name": "owner",
          "type": "address"
        },
        {
          "internalType": "address",
          "name": "operator",
          "type": "address"
        }
      ],
      "name": "isApprovedForAll",
      "outputs": [
        {
          "internalType": "bool",
          "name": "",
          "type": "bool"
        }
      ],
      "stateMutability": "view",
      "type": "function",
      "constant": true
    },
    {
      "inputs": [],
      "name": "last_completed_migration",
      "outputs": [
        {
          "internalType": "uint256",
          "name": "",
          "type": "uint256"
        }
      ],
      "stateMutability": "view",
      "type": "function",
      "constant": true
    },
    {
      "inputs": [
        {
          "internalType": "address",
          "name": "to",
          "type": "address"
        }
      ],
      "name": "mint",
      "outputs": [],
      "stateMutability": "nonpayable",
      "type": "function"
    },
    {
      "inputs": [],
      "name": "name",
      "outputs": [
        {
          "internalType": "string",
          "name": "",
          "type": "string"
        }
      ],
      "stateMutability": "view",
      "type": "function",
      "constant": true
    },
    {
      "inputs": [],
      "name": "owner",
      "outputs": [
        {
          "internalType": "address",
          "name": "",
          "type": "address"
        }
      ],
      "stateMutability": "view",
      "type": "function",
      "constant": true
    },
    {
      "inputs": [
        {
          "internalType": "uint256",
          "name": "tokenId",
          "type": "uint256"
        }
      ],
      "name": "ownerOf",
      "outputs": [
        {
          "internalType": "address",
          "name": "",
          "type": "address"
        }
      ],
      "stateMutability": "view",
      "type": "function",
      "constant": true
    },
    {
      "inputs": [
        {
          "internalType": "address",
          "name": "",
          "type": "address"
        },
        {
          "internalType": "uint256",
          "name": "",
          "type": "uint256"
        }
      ],
      "name": "ownerToIds",
      "outputs": [
        {
          "internalType": "uint256",
          "name": "",
          "type": "uint256"
        }
      ],
      "stateMutability": "view",
      "type": "function",
      "constant": true
    },
    {
      "inputs": [],
      "name": "pause",
      "outputs": [],
      "stateMutability": "nonpayable",
      "type": "function"
    },
    {
      "inputs": [],
      "name": "paused",
      "outputs": [
        {
          "internalType": "bool",
          "name": "",
          "type": "bool"
        }
      ],
      "stateMutability": "view",
      "type": "function",
      "constant": true
    },
    {
      "inputs": [
        {
          "internalType": "bytes32",
          "name": "role",
          "type": "bytes32"
        },
        {
          "internalType": "address",
          "name": "account",
          "type": "address"
        }
      ],
      "name": "renounceRole",
      "outputs": [],
      "stateMutability": "nonpayable",
      "type": "function"
    },
    {
      "inputs": [
        {
          "internalType": "bytes32",
          "name": "role",
          "type": "bytes32"
        },
        {
          "internalType": "address",
          "name": "account",
          "type": "address"
        }
      ],
      "name": "revokeRole",
      "outputs": [],
      "stateMutability": "nonpayable",
      "type": "function"
    },
    {
      "inputs": [
        {
          "internalType": "address",
          "name": "from",
          "type": "address"
        },
        {
          "internalType": "address",
          "name": "to",
          "type": "address"
        },
        {
          "internalType": "uint256",
          "name": "tokenId",
          "type": "uint256"
        }
      ],
      "name": "safeTransferFrom",
      "outputs": [],
      "stateMutability": "nonpayable",
      "type": "function"
    },
    {
      "inputs": [
        {
          "internalType": "address",
          "name": "from",
          "type": "address"
        },
        {
          "internalType": "address",
          "name": "to",
          "type": "address"
        },
        {
          "internalType": "uint256",
          "name": "tokenId",
          "type": "uint256"
        },
        {
          "internalType": "bytes",
          "name": "_data",
          "type": "bytes"
        }
      ],
      "name": "safeTransferFrom",
      "outputs": [],
      "stateMutability": "nonpayable",
      "type": "function"
    },
    {
      "inputs": [
        {
          "internalType": "address",
          "name": "operator",
          "type": "address"
        },
        {
          "internalType": "bool",
          "name": "approved",
          "type": "bool"
        }
      ],
      "name": "setApprovalForAll",
      "outputs": [],
      "stateMutability": "nonpayable",
      "type": "function"
    },
    {
      "inputs": [
        {
          "internalType": "uint256",
          "name": "completed",
          "type": "uint256"
        }
      ],
      "name": "setCompleted",
      "outputs": [],
      "stateMutability": "nonpayable",
      "type": "function"
    },
    {
      "inputs": [
        {
          "internalType": "bytes4",
          "name": "interfaceId",
          "type": "bytes4"
        }
      ],
      "name": "supportsInterface",
      "outputs": [
        {
          "internalType": "bool",
          "name": "",
          "type": "bool"
        }
      ],
      "stateMutability": "view",
      "type": "function",
      "constant": true
    },
    {
      "inputs": [],
      "name": "symbol",
      "outputs": [
        {
          "internalType": "string",
          "name": "",
          "type": "string"
        }
      ],
      "stateMutability": "view",
      "type": "function",
      "constant": true
    },
    {
      "inputs": [
        {
          "internalType": "uint256",
          "name": "index",
          "type": "uint256"
        }
      ],
      "name": "tokenByIndex",
      "outputs": [
        {
          "internalType": "uint256",
          "name": "",
          "type": "uint256"
        }
      ],
      "stateMutability": "view",
      "type": "function",
      "constant": true
    },
    {
      "inputs": [
        {
          "internalType": "address",
          "name": "owner",
          "type": "address"
        },
        {
          "internalType": "uint256",
          "name": "index",
          "type": "uint256"
        }
      ],
      "name": "tokenOfOwnerByIndex",
      "outputs": [
        {
          "internalType": "uint256",
          "name": "",
          "type": "uint256"
        }
      ],
      "stateMutability": "view",
      "type": "function",
      "constant": true
    },
    {
      "inputs": [
        {
          "internalType": "uint256",
          "name": "tokenId",
          "type": "uint256"
        }
      ],
      "name": "tokenURI",
      "outputs": [
        {
          "internalType": "string",
          "name": "",
          "type": "string"
        }
      ],
      "stateMutability": "view",
      "type": "function",
      "constant": true
    },
    {
      "inputs": [],
      "name": "totalSupply",
      "outputs": [
        {
          "internalType": "uint256",
          "name": "",
          "type": "uint256"
        }
      ],
      "stateMutability": "view",
      "type": "function",
      "constant": true
    },
    {
      "inputs": [
        {
          "internalType": "address",
          "name": "from",
          "type": "address"
        },
        {
          "internalType": "address",
          "name": "to",
          "type": "address"
        },
        {
          "internalType": "uint256",
          "name": "tokenId",
          "type": "uint256"
        }
      ],
      "name": "transferFrom",
      "outputs": [],
      "stateMutability": "nonpayable",
      "type": "function"
    },
    {
      "inputs": [],
      "name": "unpause",
      "outputs": [],
      "stateMutability": "nonpayable",
      "type": "function"
    },
    {
      "stateMutability": "payable",
      "type": "receive",
      "payable": true
    },
    {
      "inputs": [
        {
          "internalType": "uint256",
          "name": "_amount",
          "type": "uint256"
        }
      ],
      "name": "buyToken",
      "outputs": [
        {
          "internalType": "uint256",
          "name": "_tokenId",
          "type": "uint256"
        }
      ],
      "stateMutability": "nonpayable",
      "type": "function"
    },
    {
      "inputs": [
        {
          "internalType": "uint256",
          "name": "_tokenId",
          "type": "uint256"
        }
      ],
      "name": "isFlowerAlive",
      "outputs": [
        {
          "internalType": "uint256",
          "name": "_value",
          "type": "uint256"
        }
      ],
      "stateMutability": "view",
      "type": "function",
      "constant": true
    },
    {
      "inputs": [
        {
          "internalType": "uint256",
          "name": "_tokenId",
          "type": "uint256"
        },
        {
          "internalType": "uint256",
          "name": "_value",
          "type": "uint256"
        }
      ],
      "name": "createTokenOwner",
      "outputs": [],
      "stateMutability": "nonpayable",
      "type": "function"
    },
    {
      "inputs": [],
      "name": "takeBenefits",
      "outputs": [],
      "stateMutability": "nonpayable",
      "type": "function"
    },
    {
      "inputs": [
        {
          "internalType": "address",
          "name": "_newOwnerAddres",
          "type": "address"
        }
      ],
      "name": "newOwner",
      "outputs": [],
      "stateMutability": "nonpayable",
      "type": "function"
    },
    {
      "inputs": [
        {
          "internalType": "uint256",
          "name": "_minAmount",
          "type": "uint256"
        },
        {
          "internalType": "uint256",
          "name": "_maxAmount",
          "type": "uint256"
        }
      ],
      "name": "changeParams",
      "outputs": [],
      "stateMutability": "nonpayable",
      "type": "function"
    },
    {
      "inputs": [],
      "name": "getParams",
      "outputs": [
        {
          "internalType": "uint256",
          "name": "_maxId",
          "type": "uint256"
        },
        {
          "internalType": "uint256",
          "name": "_minAmount",
          "type": "uint256"
        },
        {
          "internalType": "uint256",
          "name": "_maxAmount",
          "type": "uint256"
        }
      ],
      "stateMutability": "view",
      "type": "function",
      "constant": true
    }
  ],
  "bytecode": "0x60806040523480156200001157600080fd5b506040516200713c3803806200713c833981810160405281019062000037919062000fae565b6040518060400160405280600781526020017f446565704e4654000000000000000000000000000000000000000000000000008152506040518060400160405280600481526020017f44454550000000000000000000000000000000000000000000000000000000008152506040518060400160405280602081526020017f68747470733a2f2f7777772e6368616f74696362636e2e636f6d2f646565702f8152508282336000806101000a81548173ffffffffffffffffffffffffffffffffffffffff021916908373ffffffffffffffffffffffffffffffffffffffff16021790555081600490805190602001906200013392919062000ee7565b5080600590805190602001906200014c92919062000ee7565b5050506000600e60006101000a81548160ff02191690831515021790555080601090805190602001906200018292919062000ee7565b50620001ba6000600102620001a56200030d640100000000026401000000009004565b62000315640100000000026401000000009004565b6200020d7f9f2df0fed2c77648de5860a4cc508cd0818c85b8b8a1ab4ceeef8d981c8956a6620001f86200030d640100000000026401000000009004565b62000315640100000000026401000000009004565b620002607f65d7a28e3265b37a6474929f336521b332c1681b933f6cb9f3376673440d862a6200024b6200030d640100000000026401000000009004565b62000315640100000000026401000000009004565b50505080601160006101000a81548173ffffffffffffffffffffffffffffffffffffffff021916908373ffffffffffffffffffffffffffffffffffffffff160217905550670de0b6b3a764000060128190555060006013819055506012546032620002cc919062001224565b6014819055506012546103e8620002e4919062001224565b601581905550620003063360126200036f640100000000026401000000009004565b50620013ac565b600033905090565b62000335828262000567640100000000026200205c176401000000009004565b6200036a816003600085815260200190815260200160002062000586640100000000026200206a179091906401000000009004565b505050565b600073ffffffffffffffffffffffffffffffffffffffff168273ffffffffffffffffffffffffffffffffffffffff161415620003e2576040517f08c379a0000000000000000000000000000000000000000000000000000000008152600401620003d99062001194565b60405180910390fd5b620003fc81620005c7640100000000026401000000009004565b156200043f576040517f08c379a0000000000000000000000000000000000000000000000000000000008152600401620004369062001150565b60405180910390fd5b6200045c6000838362000633640100000000026401000000009004565b6001600760008473ffffffffffffffffffffffffffffffffffffffff1673ffffffffffffffffffffffffffffffffffffffff1681526020019081526020016000206000828254620004ae9190620011c7565b92505081905550816006600083815260200190815260200160002060006101000a81548173ffffffffffffffffffffffffffffffffffffffff021916908373ffffffffffffffffffffffffffffffffffffffff160217905550808273ffffffffffffffffffffffffffffffffffffffff16600073ffffffffffffffffffffffffffffffffffffffff167fddf252ad1be2c89b69c2b068fc378daa952ba7f163c4a11628f55a4df523b3ef60405160405180910390a45050565b62000582828262000659640100000000026401000000009004565b5050565b6000620005bf836000018373ffffffffffffffffffffffffffffffffffffffff166001026200075d640100000000026401000000009004565b905092915050565b60008073ffffffffffffffffffffffffffffffffffffffff166006600084815260200190815260200160002060009054906101000a900473ffffffffffffffffffffffffffffffffffffffff1673ffffffffffffffffffffffffffffffffffffffff1614159050919050565b62000654838383620007e0640100000000026200209a176401000000009004565b505050565b62000674828262000862640100000000026401000000009004565b620007595760016002600084815260200190815260200160002060000160008373ffffffffffffffffffffffffffffffffffffffff1673ffffffffffffffffffffffffffffffffffffffff16815260200190815260200160002060006101000a81548160ff021916908315150217905550620006fe6200030d640100000000026401000000009004565b73ffffffffffffffffffffffffffffffffffffffff168173ffffffffffffffffffffffffffffffffffffffff16837f2f8788117e7eff1d82e926ec794901d17c78024a50270940304540a733656f0d60405160405180910390a45b5050565b60006200077a8383620008cd640100000000026401000000009004565b620007d5578260000182908060018154018082558091505060019003906000526020600020016000909190919091505582600001805490508360010160008481526020019081526020016000208190555060019050620007da565b600090505b92915050565b62000801838383620008f064010000000002620020f2176401000000009004565b6200081a62000a64640100000000026401000000009004565b156200085d576040517f08c379a000000000000000000000000000000000000000000000000000000000815260040162000854906200112e565b60405180910390fd5b505050565b60006002600084815260200190815260200160002060000160008373ffffffffffffffffffffffffffffffffffffffff1673ffffffffffffffffffffffffffffffffffffffff16815260200190815260200160002060009054906101000a900460ff16905092915050565b600080836001016000848152602001908152602001600020541415905092915050565b6200091183838362000a7b6401000000000262002206176401000000009004565b600073ffffffffffffffffffffffffffffffffffffffff168373ffffffffffffffffffffffffffffffffffffffff1614156200096757620009618162000a80640100000000026401000000009004565b620009b8565b8173ffffffffffffffffffffffffffffffffffffffff168373ffffffffffffffffffffffffffffffffffffffff1614620009b757620009b6838262000ac9640100000000026401000000009004565b5b5b600073ffffffffffffffffffffffffffffffffffffffff168273ffffffffffffffffffffffffffffffffffffffff16141562000a0e5762000a088162000c4f640100000000026401000000009004565b62000a5f565b8273ffffffffffffffffffffffffffffffffffffffff168273ffffffffffffffffffffffffffffffffffffffff161462000a5e5762000a5d828262000d97640100000000026401000000009004565b5b5b505050565b6000600e60009054906101000a900460ff16905090565b505050565b600c80549050600d600083815260200190815260200160002081905550600c81908060018154018082558091505060019003906000526020600020016000909190919091505550565b6000600162000aec8462000e2c6401000000000262001451176401000000009004565b62000af8919062001285565b90506000600b600084815260200190815260200160002054905081811462000bde576000600a60008673ffffffffffffffffffffffffffffffffffffffff1673ffffffffffffffffffffffffffffffffffffffff168152602001908152602001600020600084815260200190815260200160002054905080600a60008773ffffffffffffffffffffffffffffffffffffffff1673ffffffffffffffffffffffffffffffffffffffff16815260200190815260200160002060008481526020019081526020016000208190555081600b600083815260200190815260200160002081905550505b600b600084815260200190815260200160002060009055600a60008573ffffffffffffffffffffffffffffffffffffffff1673ffffffffffffffffffffffffffffffffffffffff16815260200190815260200160002060008381526020019081526020016000206000905550505050565b60006001600c8054905062000c65919062001285565b90506000600d60008481526020019081526020016000205490506000600c838154811062000cbc577f4e487b7100000000000000000000000000000000000000000000000000000000600052603260045260246000fd5b9060005260206000200154905080600c838154811062000d05577f4e487b7100000000000000000000000000000000000000000000000000000000600052603260045260246000fd5b906000526020600020018190555081600d600083815260200190815260200160002081905550600d600085815260200190815260200160002060009055600c80548062000d7b577f4e487b7100000000000000000000000000000000000000000000000000000000600052603160045260246000fd5b6001900381819060005260206000200160009055905550505050565b600062000db88362000e2c6401000000000262001451176401000000009004565b905081600a60008573ffffffffffffffffffffffffffffffffffffffff1673ffffffffffffffffffffffffffffffffffffffff16815260200190815260200160002060008381526020019081526020016000208190555080600b600084815260200190815260200160002081905550505050565b60008073ffffffffffffffffffffffffffffffffffffffff168273ffffffffffffffffffffffffffffffffffffffff16141562000ea0576040517f08c379a000000000000000000000000000000000000000000000000000000000815260040162000e979062001172565b60405180910390fd5b600760008373ffffffffffffffffffffffffffffffffffffffff1673ffffffffffffffffffffffffffffffffffffffff168152602001908152602001600020549050919050565b82805462000ef590620012fe565b90600052602060002090601f01602090048101928262000f19576000855562000f65565b82601f1062000f3457805160ff191683800117855562000f65565b8280016001018555821562000f65579182015b8281111562000f6457825182559160200191906001019062000f47565b5b50905062000f74919062000f78565b5090565b5b8082111562000f9357600081600090555060010162000f79565b5090565b60008151905062000fa88162001392565b92915050565b60006020828403121562000fc157600080fd5b600062000fd18482850162000f97565b91505092915050565b600062000fe9602b83620011b6565b91507f4552433732315061757361626c653a20746f6b656e207472616e73666572207760008301527f68696c65207061757365640000000000000000000000000000000000000000006020830152604082019050919050565b600062001051601c83620011b6565b91507f4552433732313a20746f6b656e20616c7265616479206d696e746564000000006000830152602082019050919050565b600062001093602a83620011b6565b91507f4552433732313a2062616c616e636520717565727920666f7220746865207a6560008301527f726f2061646472657373000000000000000000000000000000000000000000006020830152604082019050919050565b6000620010fb602083620011b6565b91507f4552433732313a206d696e7420746f20746865207a65726f20616464726573736000830152602082019050919050565b60006020820190508181036000830152620011498162000fda565b9050919050565b600060208201905081810360008301526200116b8162001042565b9050919050565b600060208201905081810360008301526200118d8162001084565b9050919050565b60006020820190508181036000830152620011af81620010ec565b9050919050565b600082825260208201905092915050565b6000620011d482620012f4565b9150620011e183620012f4565b9250827fffffffffffffffffffffffffffffffffffffffffffffffffffffffffffffffff0382111562001219576200121862001334565b5b828201905092915050565b60006200123182620012f4565b91506200123e83620012f4565b9250817fffffffffffffffffffffffffffffffffffffffffffffffffffffffffffffffff04831182151516156200127a576200127962001334565b5b828202905092915050565b60006200129282620012f4565b91506200129f83620012f4565b925082821015620012b557620012b462001334565b5b828203905092915050565b6000620012cd82620012d4565b9050919050565b600073ffffffffffffffffffffffffffffffffffffffff82169050919050565b6000819050919050565b600060028204905060018216806200131757607f821691505b602082108114156200132e576200132d62001363565b5b50919050565b7f4e487b7100000000000000000000000000000000000000000000000000000000600052601160045260246000fd5b7f4e487b7100000000000000000000000000000000000000000000000000000000600052602260045260246000fd5b6200139d81620012c0565b8114620013a957600080fd5b50565b615d8080620013bc6000396000f3fe60806040526004361061027d576000357c01000000000000000000000000000000000000000000000000000000009004806370a0823111610161578063b88d4fde116100d3578063d539139311610097578063d539139314610956578063d547741f14610981578063e63ab1e9146109aa578063e985e9c5146109d5578063fdacd57614610a12578063feb3d3d614610a3b57610284565b8063b88d4fde14610873578063c49e512d1461089c578063c87b56dd146108b3578063ca15c873146108f0578063d0a8e9fd1461092d57610284565b806391d148541161012557806391d148541461075157806395d89b411461078e578063a217fddf146107b9578063a22cb465146107e4578063a6f9dae11461080d578063b75d464f1461083657610284565b806370a082311461066c5780638456cb59146106a957806385952454146106c05780638da5cb5b146106e95780639010d07c1461071457610284565b80632f745c59116101fa578063445df0ac116101be578063445df0ac146105465780634f6ccce7146105715780635c975abb146105ae5780635e615a6b146105d95780636352211e146106065780636a6278421461064357610284565b80632f745c591461047757806336568abe146104b45780633f4ba83a146104dd57806342842e0e146104f457806342966c681461051d57610284565b80631f2dc471116102415780631f2dc4711461038257806323b872dd146103ab578063248a9ca3146103d45780632d296bf1146104115780632f2ff15d1461044e57610284565b806301ffc9a71461028957806306fdde03146102c6578063081812fc146102f1578063095ea7b31461032e57806318160ddd1461035757610284565b3661028457005b600080fd5b34801561029557600080fd5b506102b060048036038101906102ab91906144be565b610a78565b6040516102bd91906153d0565b60405180910390f35b3480156102d257600080fd5b506102db610a8a565b6040516102e89190615406565b60405180910390f35b3480156102fd57600080fd5b5061031860048036038101906103139190614510565b610b1c565b60405161032591906152d2565b60405180910390f35b34801561033a57600080fd5b50610355600480360381019061035091906143b8565b610ba1565b005b34801561036357600080fd5b5061036c610cb9565b60405161037991906157c8565b60405180910390f35b34801561038e57600080fd5b506103a960048036038101906103a49190614562565b610cc6565b005b3480156103b757600080fd5b506103d260048036038101906103cd91906142b2565b610d66565b005b3480156103e057600080fd5b506103fb60048036038101906103f6919061441d565b610dc6565b60405161040891906153eb565b60405180910390f35b34801561041d57600080fd5b5061043860048036038101906104339190614510565b610de6565b60405161044591906157c8565b60405180910390f35b34801561045a57600080fd5b5061047560048036038101906104709190614446565b61103f565b005b34801561048357600080fd5b5061049e600480360381019061049991906143b8565b611073565b6040516104ab91906157c8565b60405180910390f35b3480156104c057600080fd5b506104db60048036038101906104d69190614446565b611118565b005b3480156104e957600080fd5b506104f261114c565b005b34801561050057600080fd5b5061051b600480360381019061051691906142b2565b6111c6565b005b34801561052957600080fd5b50610544600480360381019061053f9190614510565b6111e6565b005b34801561055257600080fd5b5061055b611242565b60405161056891906157c8565b60405180910390f35b34801561057d57600080fd5b5061059860048036038101906105939190614510565b611248565b6040516105a591906157c8565b60405180910390f35b3480156105ba57600080fd5b506105c36112df565b6040516105d091906153d0565b60405180910390f35b3480156105e557600080fd5b506105ee6112f6565b6040516105fd939291906157e3565b60405180910390f35b34801561061257600080fd5b5061062d60048036038101906106289190614510565b61130f565b60405161063a91906152d2565b60405180910390f35b34801561064f57600080fd5b5061066a6004803603810190610665919061424d565b6113c1565b005b34801561067857600080fd5b50610693600480360381019061068e919061424d565b611451565b6040516106a091906157c8565b60405180910390f35b3480156106b557600080fd5b506106be611509565b005b3480156106cc57600080fd5b506106e760048036038101906106e2919061424d565b611583565b005b3480156106f557600080fd5b506106fe61161d565b60405161070b91906152d2565b60405180910390f35b34801561072057600080fd5b5061073b60048036038101906107369190614482565b611641565b60405161074891906152d2565b60405180910390f35b34801561075d57600080fd5b5061077860048036038101906107739190614446565b611670565b60405161078591906153d0565b60405180910390f35b34801561079a57600080fd5b506107a36116db565b6040516107b09190615406565b60405180910390f35b3480156107c557600080fd5b506107ce61176d565b6040516107db91906153eb565b60405180910390f35b3480156107f057600080fd5b5061080b6004803603810190610806919061437c565b611775565b005b34801561081957600080fd5b50610834600480360381019061082f919061424d565b6118f6565b005b34801561084257600080fd5b5061085d60048036038101906108589190614510565b6119c7565b60405161086a91906157c8565b60405180910390f35b34801561087f57600080fd5b5061089a60048036038101906108959190614301565b6119e4565b005b3480156108a857600080fd5b506108b1611a46565b005b3480156108bf57600080fd5b506108da60048036038101906108d59190614510565b611d3c565b6040516108e79190615406565b60405180910390f35b3480156108fc57600080fd5b506109176004803603810190610912919061441d565b611de3565b60405161092491906157c8565b60405180910390f35b34801561093957600080fd5b50610954600480360381019061094f9190614562565b611e07565b005b34801561096257600080fd5b5061096b611f11565b60405161097891906153eb565b60405180910390f35b34801561098d57600080fd5b506109a860048036038101906109a39190614446565b611f35565b005b3480156109b657600080fd5b506109bf611f69565b6040516109cc91906153eb565b60405180910390f35b3480156109e157600080fd5b506109fc60048036038101906109f79190614276565b611f8d565b604051610a0991906153d0565b60405180910390f35b348015610a1e57600080fd5b50610a396004803603810190610a349190614510565b612021565b005b348015610a4757600080fd5b50610a626004803603810190610a5d91906143b8565b61202b565b604051610a6f91906157c8565b60405180910390f35b6000610a838261220b565b9050919050565b606060048054610a9990615b05565b80601f0160208091040260200160405190810160405280929190818152602001828054610ac590615b05565b8015610b125780601f10610ae757610100808354040283529160200191610b12565b820191906000526020600020905b815481529060010190602001808311610af557829003601f168201915b5050505050905090565b6000610b2782612285565b610b66576040517f08c379a0000000000000000000000000000000000000000000000000000000008152600401610b5d90615668565b60405180910390fd5b6008600083815260200190815260200160002060009054906101000a900473ffffffffffffffffffffffffffffffffffffffff169050919050565b6000610bac8261130f565b90508073ffffffffffffffffffffffffffffffffffffffff168373ffffffffffffffffffffffffffffffffffffffff161415610c1d576040517f08c379a0000000000000000000000000000000000000000000000000000000008152600401610c14906156c8565b60405180910390fd5b8073ffffffffffffffffffffffffffffffffffffffff16610c3c6122f1565b73ffffffffffffffffffffffffffffffffffffffff161480610c6b5750610c6a81610c656122f1565b611f8d565b5b610caa576040517f08c379a0000000000000000000000000000000000000000000000000000000008152600401610ca1906155e8565b60405180910390fd5b610cb483836122f9565b505050565b6000600c80549050905090565b60008054906101000a900473ffffffffffffffffffffffffffffffffffffffff1673ffffffffffffffffffffffffffffffffffffffff163373ffffffffffffffffffffffffffffffffffffffff1614610d54576040517f08c379a0000000000000000000000000000000000000000000000000000000008152600401610d4b90615568565b60405180910390fd5b81601481905550806015819055505050565b610d77610d716122f1565b826123b2565b610db6576040517f08c379a0000000000000000000000000000000000000000000000000000000008152600401610dad906156e8565b60405180910390fd5b610dc1838383612490565b505050565b600060026000838152602001908152602001600020600101549050919050565b600081601160009054906101000a900473ffffffffffffffffffffffffffffffffffffffff1673ffffffffffffffffffffffffffffffffffffffff166370a08231336040518263ffffffff167c0100000000000000000000000000000000000000000000000000000000028152600401610e6091906152d2565b60206040518083038186803b158015610e7857600080fd5b505afa158015610e8c573d6000803e3d6000fd5b505050506040513d601f19601f82011682018060405250810190610eb09190614539565b10158015610ec057506014548210155b8015610ece57506015548211155b610f0d576040517f08c379a0000000000000000000000000000000000000000000000000000000008152600401610f0490615768565b60405180910390fd5b6000610f18836126ec565b90505b6000601660008381526020019081526020016000205414610f4657610f3f836126ec565b9050610f1b565b601160009054906101000a900473ffffffffffffffffffffffffffffffffffffffff1673ffffffffffffffffffffffffffffffffffffffff166323b872dd3330866040518463ffffffff167c0100000000000000000000000000000000000000000000000000000000028152600401610fc1939291906152ed565b602060405180830381600087803b158015610fdb57600080fd5b505af1158015610fef573d6000803e3d6000fd5b505050506040513d601f19601f8201168201806040525081019061101391906143f4565b5061101e338261291e565b82601660008381526020019081526020016000208190555080915050919050565b6110498282612aec565b61106e816003600085815260200190815260200160002061206a90919063ffffffff16565b505050565b600061107e83611451565b82106110bf576040517f08c379a00000000000000000000000000000000000000000000000000000000081526004016110b6906154a8565b60405180910390fd5b600a60008473ffffffffffffffffffffffffffffffffffffffff1673ffffffffffffffffffffffffffffffffffffffff168152602001908152602001600020600083815260200190815260200160002054905092915050565b6111228282612b15565b6111478160036000858152602001908152602001600020612b9890919063ffffffff16565b505050565b61117d7f65d7a28e3265b37a6474929f336521b332c1681b933f6cb9f3376673440d862a6111786122f1565b611670565b6111bc576040517f08c379a00000000000000000000000000000000000000000000000000000000081526004016111b390615788565b60405180910390fd5b6111c4612bc8565b565b6111e1838383604051806020016040528060008152506119e4565b505050565b6111f76111f16122f1565b826123b2565b611236576040517f08c379a000000000000000000000000000000000000000000000000000000000815260040161122d90615748565b60405180910390fd5b61123f81612c6a565b50565b60015481565b6000611252610cb9565b8210611293576040517f08c379a000000000000000000000000000000000000000000000000000000000815260040161128a90615708565b60405180910390fd5b600c82815481106112cd577f4e487b7100000000000000000000000000000000000000000000000000000000600052603260045260246000fd5b90600052602060002001549050919050565b6000600e60009054906101000a900460ff16905090565b6000806000601354601454601554925092509250909192565b6000806006600084815260200190815260200160002060009054906101000a900473ffffffffffffffffffffffffffffffffffffffff169050600073ffffffffffffffffffffffffffffffffffffffff168173ffffffffffffffffffffffffffffffffffffffff1614156113b8576040517f08c379a00000000000000000000000000000000000000000000000000000000081526004016113af90615628565b60405180910390fd5b80915050919050565b6113f27f9f2df0fed2c77648de5860a4cc508cd0818c85b8b8a1ab4ceeef8d981c8956a66113ed6122f1565b611670565b611431576040517f08c379a000000000000000000000000000000000000000000000000000000000815260040161142890615728565b60405180910390fd5b6114448161143f600f612d7b565b61291e565b61144e600f612d89565b50565b60008073ffffffffffffffffffffffffffffffffffffffff168273ffffffffffffffffffffffffffffffffffffffff1614156114c2576040517f08c379a00000000000000000000000000000000000000000000000000000000081526004016114b990615608565b60405180910390fd5b600760008373ffffffffffffffffffffffffffffffffffffffff1673ffffffffffffffffffffffffffffffffffffffff168152602001908152602001600020549050919050565b61153a7f65d7a28e3265b37a6474929f336521b332c1681b933f6cb9f3376673440d862a6115356122f1565b611670565b611579576040517f08c379a000000000000000000000000000000000000000000000000000000000815260040161157090615508565b60405180910390fd5b611581612d9f565b565b60008054906101000a900473ffffffffffffffffffffffffffffffffffffffff1673ffffffffffffffffffffffffffffffffffffffff163373ffffffffffffffffffffffffffffffffffffffff1614611611576040517f08c379a000000000000000000000000000000000000000000000000000000000815260040161160890615568565b60405180910390fd5b61161a816118f6565b50565b60008054906101000a900473ffffffffffffffffffffffffffffffffffffffff1681565b60006116688260036000868152602001908152602001600020612e4290919063ffffffff16565b905092915050565b60006002600084815260200190815260200160002060000160008373ffffffffffffffffffffffffffffffffffffffff1673ffffffffffffffffffffffffffffffffffffffff16815260200190815260200160002060009054906101000a900460ff16905092915050565b6060600580546116ea90615b05565b80601f016020809104026020016040519081016040528092919081815260200182805461171690615b05565b80156117635780601f1061173857610100808354040283529160200191611763565b820191906000526020600020905b81548152906001019060200180831161174657829003601f168201915b5050505050905090565b600060010281565b61177d6122f1565b73ffffffffffffffffffffffffffffffffffffffff168273ffffffffffffffffffffffffffffffffffffffff1614156117eb576040517f08c379a00000000000000000000000000000000000000000000000000000000081526004016117e290615548565b60405180910390fd5b80600960006117f86122f1565b73ffffffffffffffffffffffffffffffffffffffff1673ffffffffffffffffffffffffffffffffffffffff16815260200190815260200160002060008473ffffffffffffffffffffffffffffffffffffffff1673ffffffffffffffffffffffffffffffffffffffff16815260200190815260200160002060006101000a81548160ff0219169083151502179055508173ffffffffffffffffffffffffffffffffffffffff166118a56122f1565b73ffffffffffffffffffffffffffffffffffffffff167f17307eab39ab6107e8899845ad3d59bd9653f200f220920489ca2b5937696c31836040516118ea91906153d0565b60405180910390a35050565b60008054906101000a900473ffffffffffffffffffffffffffffffffffffffff1673ffffffffffffffffffffffffffffffffffffffff163373ffffffffffffffffffffffffffffffffffffffff1614611984576040517f08c379a000000000000000000000000000000000000000000000000000000000815260040161197b90615568565b60405180910390fd5b806000806101000a81548173ffffffffffffffffffffffffffffffffffffffff021916908373ffffffffffffffffffffffffffffffffffffffff16021790555050565b600060166000838152602001908152602001600020549050919050565b6119f56119ef6122f1565b836123b2565b611a34576040517f08c379a0000000000000000000000000000000000000000000000000000000008152600401611a2b906156e8565b60405180910390fd5b611a4084848484612e5d565b50505050565b60008054906101000a900473ffffffffffffffffffffffffffffffffffffffff1673ffffffffffffffffffffffffffffffffffffffff163373ffffffffffffffffffffffffffffffffffffffff1614611ad4576040517f08c379a0000000000000000000000000000000000000000000000000000000008152600401611acb90615568565b60405180910390fd5b6000601160009054906101000a900473ffffffffffffffffffffffffffffffffffffffff1673ffffffffffffffffffffffffffffffffffffffff166370a08231306040518263ffffffff167c0100000000000000000000000000000000000000000000000000000000028152600401611b4d91906152d2565b60206040518083038186803b158015611b6557600080fd5b505afa158015611b79573d6000803e3d6000fd5b505050506040513d601f19601f82011682018060405250810190611b9d9190614539565b9050601160009054906101000a900473ffffffffffffffffffffffffffffffffffffffff1673ffffffffffffffffffffffffffffffffffffffff1663095ea7b333836040518363ffffffff167c0100000000000000000000000000000000000000000000000000000000028152600401611c189291906153a7565b602060405180830381600087803b158015611c3257600080fd5b505af1158015611c46573d6000803e3d6000fd5b505050506040513d601f19601f82011682018060405250810190611c6a91906143f4565b50601160009054906101000a900473ffffffffffffffffffffffffffffffffffffffff1673ffffffffffffffffffffffffffffffffffffffff166323b872dd3033846040518463ffffffff167c0100000000000000000000000000000000000000000000000000000000028152600401611ce693929190615324565b602060405180830381600087803b158015611d0057600080fd5b505af1158015611d14573d6000803e3d6000fd5b505050506040513d601f19601f82011682018060405250810190611d3891906143f4565b5050565b6060611d4782612285565b611d86576040517f08c379a0000000000000000000000000000000000000000000000000000000008152600401611d7d906156a8565b60405180910390fd5b6000611d90612eb9565b90506000815111611db05760405180602001604052806000815250611ddb565b80611dba84612f4b565b604051602001611dcb9291906151ef565b6040516020818303038152906040525b915050919050565b6000611e0060036000848152602001908152602001600020613117565b9050919050565b60008054906101000a900473ffffffffffffffffffffffffffffffffffffffff1673ffffffffffffffffffffffffffffffffffffffff163373ffffffffffffffffffffffffffffffffffffffff1614611e95576040517f08c379a0000000000000000000000000000000000000000000000000000000008152600401611e8c90615568565b60405180910390fd5b6000601660008481526020019081526020016000205414611eeb576040517f08c379a0000000000000000000000000000000000000000000000000000000008152600401611ee2906155c8565b60405180910390fd5b611ef5338361291e565b8060166000848152602001908152602001600020819055505050565b7f9f2df0fed2c77648de5860a4cc508cd0818c85b8b8a1ab4ceeef8d981c8956a681565b611f3f828261312c565b611f648160036000858152602001908152602001600020612b9890919063ffffffff16565b505050565b7f65d7a28e3265b37a6474929f336521b332c1681b933f6cb9f3376673440d862a81565b6000600960008473ffffffffffffffffffffffffffffffffffffffff1673ffffffffffffffffffffffffffffffffffffffff16815260200190815260200160002060008373ffffffffffffffffffffffffffffffffffffffff1673ffffffffffffffffffffffffffffffffffffffff16815260200190815260200160002060009054906101000a900460ff16905092915050565b8060018190555050565b6017602052816000526040600020818154811061204757600080fd5b90600052602060002001600091509150505481565b6120668282613155565b5050565b6000612092836000018373ffffffffffffffffffffffffffffffffffffffff16600102613236565b905092915050565b6120a58383836120f2565b6120ad6112df565b156120ed576040517f08c379a00000000000000000000000000000000000000000000000000000000081526004016120e490615468565b60405180910390fd5b505050565b6120fd838383612206565b600073ffffffffffffffffffffffffffffffffffffffff168373ffffffffffffffffffffffffffffffffffffffff1614156121405761213b816132a6565b61217f565b8173ffffffffffffffffffffffffffffffffffffffff168373ffffffffffffffffffffffffffffffffffffffff161461217e5761217d83826132ef565b5b5b600073ffffffffffffffffffffffffffffffffffffffff168273ffffffffffffffffffffffffffffffffffffffff1614156121c2576121bd8161345c565b612201565b8273ffffffffffffffffffffffffffffffffffffffff168273ffffffffffffffffffffffffffffffffffffffff1614612200576121ff828261359f565b5b5b505050565b505050565b60007f780e9d63000000000000000000000000000000000000000000000000000000007bffffffffffffffffffffffffffffffffffffffffffffffffffffffff1916827bffffffffffffffffffffffffffffffffffffffffffffffffffffffff1916148061227e575061227d8261361e565b5b9050919050565b60008073ffffffffffffffffffffffffffffffffffffffff166006600084815260200190815260200160002060009054906101000a900473ffffffffffffffffffffffffffffffffffffffff1673ffffffffffffffffffffffffffffffffffffffff1614159050919050565b600033905090565b816008600083815260200190815260200160002060006101000a81548173ffffffffffffffffffffffffffffffffffffffff021916908373ffffffffffffffffffffffffffffffffffffffff160217905550808273ffffffffffffffffffffffffffffffffffffffff1661236c8361130f565b73ffffffffffffffffffffffffffffffffffffffff167f8c5be1e5ebec7d5bd14f71427d1e84f3dd0314c0f7b2291e5b200ac8c7c3b92560405160405180910390a45050565b60006123bd82612285565b6123fc576040517f08c379a00000000000000000000000000000000000000000000000000000000081526004016123f390615588565b60405180910390fd5b60006124078361130f565b90508073ffffffffffffffffffffffffffffffffffffffff168473ffffffffffffffffffffffffffffffffffffffff16148061247657508373ffffffffffffffffffffffffffffffffffffffff1661245e84610b1c565b73ffffffffffffffffffffffffffffffffffffffff16145b8061248757506124868185611f8d565b5b91505092915050565b8273ffffffffffffffffffffffffffffffffffffffff166124b08261130f565b73ffffffffffffffffffffffffffffffffffffffff1614612506576040517f08c379a00000000000000000000000000000000000000000000000000000000081526004016124fd90615688565b60405180910390fd5b600073ffffffffffffffffffffffffffffffffffffffff168273ffffffffffffffffffffffffffffffffffffffff161415612576576040517f08c379a000000000000000000000000000000000000000000000000000000000815260040161256d90615528565b60405180910390fd5b612581838383613700565b61258c6000826122f9565b6001600760008573ffffffffffffffffffffffffffffffffffffffff1673ffffffffffffffffffffffffffffffffffffffff16815260200190815260200160002060008282546125dc919061599f565b925050819055506001600760008473ffffffffffffffffffffffffffffffffffffffff1673ffffffffffffffffffffffffffffffffffffffff168152602001908152602001600020600082825461263391906158be565b92505081905550816006600083815260200190815260200160002060006101000a81548173ffffffffffffffffffffffffffffffffffffffff021916908373ffffffffffffffffffffffffffffffffffffffff160217905550808273ffffffffffffffffffffffffffffffffffffffff168473ffffffffffffffffffffffffffffffffffffffff167fddf252ad1be2c89b69c2b068fc378daa952ba7f163c4a11628f55a4df523b3ef60405160405180910390a4505050565b600080601860003373ffffffffffffffffffffffffffffffffffffffff1673ffffffffffffffffffffffffffffffffffffffff1681526020019081526020016000205414156127e857601354601860003373ffffffffffffffffffffffffffffffffffffffff1673ffffffffffffffffffffffffffffffffffffffff168152602001908152602001600020819055503360196000601354815260200190815260200160002060006101000a81548173ffffffffffffffffffffffffffffffffffffffff021916908373ffffffffffffffffffffffffffffffffffffffff160217905550601360008154809291906127e290615b37565b91905055505b6000601254836127f89190615bc0565b83612803919061599f565b9050600042334360405160200161281c9392919061524d565b604051602081830303815290604052805190602001206001900490506000600143612847919061599f565b406001900490506013548261285c9190615bc0565b91506019600083815260200190815260200160002060009054906101000a900473ffffffffffffffffffffffffffffffffffffffff1673ffffffffffffffffffffffffffffffffffffffff1691508082416040516020016128bf93929190615295565b604051602081830303815290604052805190602001206001900491506064826128e89190615bc0565b826128f3919061599f565b915082826129019190615914565b9150601254826129119190615bc0565b9150819350505050919050565b600073ffffffffffffffffffffffffffffffffffffffff168273ffffffffffffffffffffffffffffffffffffffff16141561298e576040517f08c379a000000000000000000000000000000000000000000000000000000000815260040161298590615648565b60405180910390fd5b61299781612285565b156129d7576040517f08c379a00000000000000000000000000000000000000000000000000000000081526004016129ce906154e8565b60405180910390fd5b6129e360008383613700565b6001600760008473ffffffffffffffffffffffffffffffffffffffff1673ffffffffffffffffffffffffffffffffffffffff1681526020019081526020016000206000828254612a3391906158be565b92505081905550816006600083815260200190815260200160002060006101000a81548173ffffffffffffffffffffffffffffffffffffffff021916908373ffffffffffffffffffffffffffffffffffffffff160217905550808273ffffffffffffffffffffffffffffffffffffffff16600073ffffffffffffffffffffffffffffffffffffffff167fddf252ad1be2c89b69c2b068fc378daa952ba7f163c4a11628f55a4df523b3ef60405160405180910390a45050565b612af582610dc6565b612b0681612b016122f1565b613710565b612b108383613155565b505050565b612b1d6122f1565b73ffffffffffffffffffffffffffffffffffffffff168173ffffffffffffffffffffffffffffffffffffffff1614612b8a576040517f08c379a0000000000000000000000000000000000000000000000000000000008152600401612b81906157a8565b60405180910390fd5b612b9482826137ae565b5050565b6000612bc0836000018373ffffffffffffffffffffffffffffffffffffffff16600102613890565b905092915050565b612bd06112df565b612c0f576040517f08c379a0000000000000000000000000000000000000000000000000000000008152600401612c0690615488565b60405180910390fd5b6000600e60006101000a81548160ff0219169083151502179055507f5db9ee0a495bf2e6ff9c91a7834c1ba4fdd244a5e8aa4e537bd38aeae4b073aa612c536122f1565b604051612c6091906152d2565b60405180910390a1565b6000612c758261130f565b9050612c8381600084613700565b612c8e6000836122f9565b6001600760008373ffffffffffffffffffffffffffffffffffffffff1673ffffffffffffffffffffffffffffffffffffffff1681526020019081526020016000206000828254612cde919061599f565b925050819055506006600083815260200190815260200160002060006101000a81549073ffffffffffffffffffffffffffffffffffffffff021916905581600073ffffffffffffffffffffffffffffffffffffffff168273ffffffffffffffffffffffffffffffffffffffff167fddf252ad1be2c89b69c2b068fc378daa952ba7f163c4a11628f55a4df523b3ef60405160405180910390a45050565b600081600001549050919050565b6001816000016000828254019250508190555050565b612da76112df565b15612de7576040517f08c379a0000000000000000000000000000000000000000000000000000000008152600401612dde906155a8565b60405180910390fd5b6001600e60006101000a81548160ff0219169083151502179055507f62e78cea01bee320cd4e420270b5ea74000d11b0c9f74754ebdbfc544b05a258612e2b6122f1565b604051612e3891906152d2565b60405180910390a1565b6000612e518360000183613a0e565b60019004905092915050565b612e68848484612490565b612e7484848484613aa8565b612eb3576040517f08c379a0000000000000000000000000000000000000000000000000000000008152600401612eaa906154c8565b60405180910390fd5b50505050565b606060108054612ec890615b05565b80601f0160208091040260200160405190810160405280929190818152602001828054612ef490615b05565b8015612f415780601f10612f1657610100808354040283529160200191612f41565b820191906000526020600020905b815481529060010190602001808311612f2457829003601f168201915b5050505050905090565b60606000821415612f93576040518060400160405280600181526020017f30000000000000000000000000000000000000000000000000000000000000008152509050613112565b600082905060005b60008214612fc5578080612fae90615b37565b915050600a82612fbe9190615914565b9150612f9b565b60008167ffffffffffffffff811115613007577f4e487b7100000000000000000000000000000000000000000000000000000000600052604160045260246000fd5b6040519080825280601f01601f1916602001820160405280156130395781602001600182028036833780820191505090505b5090505b6000851461310b57600182613052919061599f565b9150600a856130619190615bc0565b603061306d91906158be565b7f0100000000000000000000000000000000000000000000000000000000000000028183815181106130c8577f4e487b7100000000000000000000000000000000000000000000000000000000600052603260045260246000fd5b60200101907effffffffffffffffffffffffffffffffffffffffffffffffffffffffffffff1916908160001a905350600a856131049190615914565b945061303d565b8093505050505b919050565b600061312582600001613c77565b9050919050565b61313582610dc6565b613146816131416122f1565b613710565b61315083836137ae565b505050565b61315f8282611670565b6132325760016002600084815260200190815260200160002060000160008373ffffffffffffffffffffffffffffffffffffffff1673ffffffffffffffffffffffffffffffffffffffff16815260200190815260200160002060006101000a81548160ff0219169083151502179055506131d76122f1565b73ffffffffffffffffffffffffffffffffffffffff168173ffffffffffffffffffffffffffffffffffffffff16837f2f8788117e7eff1d82e926ec794901d17c78024a50270940304540a733656f0d60405160405180910390a45b5050565b60006132428383613c88565b61329b5782600001829080600181540180825580915050600190039060005260206000200160009091909190915055826000018054905083600101600084815260200190815260200160002081905550600190506132a0565b600090505b92915050565b600c80549050600d600083815260200190815260200160002081905550600c81908060018154018082558091505060019003906000526020600020016000909190919091505550565b600060016132fc84611451565b613306919061599f565b90506000600b60008481526020019081526020016000205490508181146133eb576000600a60008673ffffffffffffffffffffffffffffffffffffffff1673ffffffffffffffffffffffffffffffffffffffff168152602001908152602001600020600084815260200190815260200160002054905080600a60008773ffffffffffffffffffffffffffffffffffffffff1673ffffffffffffffffffffffffffffffffffffffff16815260200190815260200160002060008481526020019081526020016000208190555081600b600083815260200190815260200160002081905550505b600b600084815260200190815260200160002060009055600a60008573ffffffffffffffffffffffffffffffffffffffff1673ffffffffffffffffffffffffffffffffffffffff16815260200190815260200160002060008381526020019081526020016000206000905550505050565b60006001600c80549050613470919061599f565b90506000600d60008481526020019081526020016000205490506000600c83815481106134c6577f4e487b7100000000000000000000000000000000000000000000000000000000600052603260045260246000fd5b9060005260206000200154905080600c838154811061350e577f4e487b7100000000000000000000000000000000000000000000000000000000600052603260045260246000fd5b906000526020600020018190555081600d600083815260200190815260200160002081905550600d600085815260200190815260200160002060009055600c805480613583577f4e487b7100000000000000000000000000000000000000000000000000000000600052603160045260246000fd5b6001900381819060005260206000200160009055905550505050565b60006135aa83611451565b905081600a60008573ffffffffffffffffffffffffffffffffffffffff1673ffffffffffffffffffffffffffffffffffffffff16815260200190815260200160002060008381526020019081526020016000208190555080600b600084815260200190815260200160002081905550505050565b60007f80ac58cd000000000000000000000000000000000000000000000000000000007bffffffffffffffffffffffffffffffffffffffffffffffffffffffff1916827bffffffffffffffffffffffffffffffffffffffffffffffffffffffff191614806136e957507f5b5e139f000000000000000000000000000000000000000000000000000000007bffffffffffffffffffffffffffffffffffffffffffffffffffffffff1916827bffffffffffffffffffffffffffffffffffffffffffffffffffffffff1916145b806136f957506136f882613cab565b5b9050919050565b61370b83838361209a565b505050565b61371a8282611670565b6137aa5761373f8173ffffffffffffffffffffffffffffffffffffffff166014613d25565b61374e83600190046020613d25565b60405160200161375f929190615213565b6040516020818303038152906040526040517f08c379a00000000000000000000000000000000000000000000000000000000081526004016137a19190615406565b60405180910390fd5b5050565b6137b88282611670565b1561388c5760006002600084815260200190815260200160002060000160008373ffffffffffffffffffffffffffffffffffffffff1673ffffffffffffffffffffffffffffffffffffffff16815260200190815260200160002060006101000a81548160ff0219169083151502179055506138316122f1565b73ffffffffffffffffffffffffffffffffffffffff168173ffffffffffffffffffffffffffffffffffffffff16837ff6391f5c32d9c69d2a47ea670b442974b53935d1edc7fd64eb21e047a839171b60405160405180910390a45b5050565b60008083600101600084815260200190815260200160002054905060008114613a025760006001826138c2919061599f565b90506000600186600001805490506138da919061599f565b9050600086600001828154811061391a577f4e487b7100000000000000000000000000000000000000000000000000000000600052603260045260246000fd5b9060005260206000200154905080876000018481548110613964577f4e487b7100000000000000000000000000000000000000000000000000000000600052603260045260246000fd5b90600052602060002001819055508387600101600083815260200190815260200160002081905550866000018054806139c6577f4e487b7100000000000000000000000000000000000000000000000000000000600052603160045260246000fd5b60019003818190600052602060002001600090559055866001016000878152602001908152602001600020600090556001945050505050613a08565b60009150505b92915050565b600081836000018054905011613a59576040517f08c379a0000000000000000000000000000000000000000000000000000000008152600401613a5090615428565b60405180910390fd5b826000018281548110613a95577f4e487b7100000000000000000000000000000000000000000000000000000000600052603260045260246000fd5b9060005260206000200154905092915050565b6000613ac98473ffffffffffffffffffffffffffffffffffffffff16614046565b15613c6a578373ffffffffffffffffffffffffffffffffffffffff1663150b7a02613af26122f1565b8786866040518563ffffffff167c0100000000000000000000000000000000000000000000000000000000028152600401613b30949392919061535b565b602060405180830381600087803b158015613b4a57600080fd5b505af1925050508015613b7b57506040513d601f19601f82011682018060405250810190613b7891906144e7565b60015b613bfe573d8060008114613bab576040519150601f19603f3d011682016040523d82523d6000602084013e613bb0565b606091505b50600081511415613bf6576040517f08c379a0000000000000000000000000000000000000000000000000000000008152600401613bed906154c8565b60405180910390fd5b805181602001fd5b63150b7a027c0100000000000000000000000000000000000000000000000000000000027bffffffffffffffffffffffffffffffffffffffffffffffffffffffff1916817bffffffffffffffffffffffffffffffffffffffffffffffffffffffff191614915050613c6f565b600190505b949350505050565b600081600001805490509050919050565b600080836001016000848152602001908152602001600020541415905092915050565b60007f5a05180f000000000000000000000000000000000000000000000000000000007bffffffffffffffffffffffffffffffffffffffffffffffffffffffff1916827bffffffffffffffffffffffffffffffffffffffffffffffffffffffff19161480613d1e5750613d1d82614059565b5b9050919050565b606060006002836002613d389190615945565b613d4291906158be565b67ffffffffffffffff811115613d81577f4e487b7100000000000000000000000000000000000000000000000000000000600052604160045260246000fd5b6040519080825280601f01601f191660200182016040528015613db35781602001600182028036833780820191505090505b5090507f300000000000000000000000000000000000000000000000000000000000000081600081518110613e11577f4e487b7100000000000000000000000000000000000000000000000000000000600052603260045260246000fd5b60200101907effffffffffffffffffffffffffffffffffffffffffffffffffffffffffffff1916908160001a9053507f780000000000000000000000000000000000000000000000000000000000000081600181518110613e9b577f4e487b7100000000000000000000000000000000000000000000000000000000600052603260045260246000fd5b60200101907effffffffffffffffffffffffffffffffffffffffffffffffffffffffffffff1916908160001a90535060006001846002613edb9190615945565b613ee591906158be565b90505b6001811115613ff8577f3031323334353637383961626364656600000000000000000000000000000000600f861660108110613f4d577f4e487b7100000000000000000000000000000000000000000000000000000000600052603260045260246000fd5b1a7f010000000000000000000000000000000000000000000000000000000000000002828281518110613fa9577f4e487b7100000000000000000000000000000000000000000000000000000000600052603260045260246000fd5b60200101907effffffffffffffffffffffffffffffffffffffffffffffffffffffffffffff1916908160001a905350600485908060020a8204915050945080613ff190615adb565b9050613ee8565b506000841461403c576040517f08c379a000000000000000000000000000000000000000000000000000000000815260040161403390615448565b60405180910390fd5b8091505092915050565b600080823b905060008111915050919050565b60007f7965db0b000000000000000000000000000000000000000000000000000000007bffffffffffffffffffffffffffffffffffffffffffffffffffffffff1916827bffffffffffffffffffffffffffffffffffffffffffffffffffffffff191614806140cc57506140cb826140d3565b5b9050919050565b60007f01ffc9a7000000000000000000000000000000000000000000000000000000007bffffffffffffffffffffffffffffffffffffffffffffffffffffffff1916827bffffffffffffffffffffffffffffffffffffffffffffffffffffffff1916149050919050565b600061415061414b8461584b565b61581a565b90508281526020810184848401111561416857600080fd5b614173848285615a99565b509392505050565b60008135905061418a81615cd7565b92915050565b60008135905061419f81615cee565b92915050565b6000815190506141b481615cee565b92915050565b6000813590506141c981615d05565b92915050565b6000813590506141de81615d1c565b92915050565b6000815190506141f381615d1c565b92915050565b600082601f83011261420a57600080fd5b813561421a84826020860161413d565b91505092915050565b60008135905061423281615d33565b92915050565b60008151905061424781615d33565b92915050565b60006020828403121561425f57600080fd5b600061426d8482850161417b565b91505092915050565b6000806040838503121561428957600080fd5b60006142978582860161417b565b92505060206142a88582860161417b565b9150509250929050565b6000806000606084860312156142c757600080fd5b60006142d58682870161417b565b93505060206142e68682870161417b565b92505060406142f786828701614223565b9150509250925092565b6000806000806080858703121561431757600080fd5b60006143258782880161417b565b94505060206143368782880161417b565b935050604061434787828801614223565b925050606085013567ffffffffffffffff81111561436457600080fd5b614370878288016141f9565b91505092959194509250565b6000806040838503121561438f57600080fd5b600061439d8582860161417b565b92505060206143ae85828601614190565b9150509250929050565b600080604083850312156143cb57600080fd5b60006143d98582860161417b565b92505060206143ea85828601614223565b9150509250929050565b60006020828403121561440657600080fd5b6000614414848285016141a5565b91505092915050565b60006020828403121561442f57600080fd5b600061443d848285016141ba565b91505092915050565b6000806040838503121561445957600080fd5b6000614467858286016141ba565b92505060206144788582860161417b565b9150509250929050565b6000806040838503121561449557600080fd5b60006144a3858286016141ba565b92505060206144b485828601614223565b9150509250929050565b6000602082840312156144d057600080fd5b60006144de848285016141cf565b91505092915050565b6000602082840312156144f957600080fd5b6000614507848285016141e4565b91505092915050565b60006020828403121561452257600080fd5b600061453084828501614223565b91505092915050565b60006020828403121561454b57600080fd5b600061455984828501614238565b91505092915050565b6000806040838503121561457557600080fd5b600061458385828601614223565b925050602061459485828601614223565b9150509250929050565b6145a781615a63565b82525050565b6145be6145b9826159e5565b615b92565b82525050565b6145cd816159d3565b82525050565b6145e46145df826159d3565b615b80565b82525050565b6145f3816159f7565b82525050565b61460281615a03565b82525050565b60006146138261587b565b61461d8185615891565b935061462d818560208601615aa8565b61463681615cad565b840191505092915050565b600061464c82615886565b61465681856158a2565b9350614666818560208601615aa8565b61466f81615cad565b840191505092915050565b600061468582615886565b61468f81856158b3565b935061469f818560208601615aa8565b80840191505092915050565b60006146b86022836158a2565b91507f456e756d657261626c655365743a20696e646578206f7574206f6620626f756e60008301527f64730000000000000000000000000000000000000000000000000000000000006020830152604082019050919050565b600061471e6020836158a2565b91507f537472696e67733a20686578206c656e67746820696e73756666696369656e746000830152602082019050919050565b600061475e602b836158a2565b91507f4552433732315061757361626c653a20746f6b656e207472616e73666572207760008301527f68696c65207061757365640000000000000000000000000000000000000000006020830152604082019050919050565b60006147c46014836158a2565b91507f5061757361626c653a206e6f74207061757365640000000000000000000000006000830152602082019050919050565b6000614804602b836158a2565b91507f455243373231456e756d657261626c653a206f776e657220696e646578206f7560008301527f74206f6620626f756e64730000000000000000000000000000000000000000006020830152604082019050919050565b600061486a6032836158a2565b91507f4552433732313a207472616e7366657220746f206e6f6e20455243373231526560008301527f63656976657220696d706c656d656e74657200000000000000000000000000006020830152604082019050919050565b60006148d0601c836158a2565b91507f4552433732313a20746f6b656e20616c7265616479206d696e746564000000006000830152602082019050919050565b6000614910603e836158a2565b91507f4552433732315072657365744d696e7465725061757365724175746f49643a2060008301527f6d75737420686176652070617573657220726f6c6520746f20706175736500006020830152604082019050919050565b60006149766024836158a2565b91507f4552433732313a207472616e7366657220746f20746865207a65726f2061646460008301527f72657373000000000000000000000000000000000000000000000000000000006020830152604082019050919050565b60006149dc6019836158a2565b91507f4552433732313a20617070726f766520746f2063616c6c6572000000000000006000830152602082019050919050565b6000614a1c6009836158a2565b91507f4e6f74204f776e657200000000000000000000000000000000000000000000006000830152602082019050919050565b6000614a5c602c836158a2565b91507f4552433732313a206f70657261746f7220717565727920666f72206e6f6e657860008301527f697374656e7420746f6b656e00000000000000000000000000000000000000006020830152604082019050919050565b6000614ac26010836158a2565b91507f5061757361626c653a20706175736564000000000000000000000000000000006000830152602082019050919050565b6000614b026015836158a2565b91507f466c6f77657220616c726561647920616c6976652e00000000000000000000006000830152602082019050919050565b6000614b426038836158a2565b91507f4552433732313a20617070726f76652063616c6c6572206973206e6f74206f7760008301527f6e6572206e6f7220617070726f76656420666f7220616c6c00000000000000006020830152604082019050919050565b6000614ba8602a836158a2565b91507f4552433732313a2062616c616e636520717565727920666f7220746865207a6560008301527f726f2061646472657373000000000000000000000000000000000000000000006020830152604082019050919050565b6000614c0e6029836158a2565b91507f4552433732313a206f776e657220717565727920666f72206e6f6e657869737460008301527f656e7420746f6b656e00000000000000000000000000000000000000000000006020830152604082019050919050565b6000614c746020836158a2565b91507f4552433732313a206d696e7420746f20746865207a65726f20616464726573736000830152602082019050919050565b6000614cb4602c836158a2565b91507f4552433732313a20617070726f76656420717565727920666f72206e6f6e657860008301527f697374656e7420746f6b656e00000000000000000000000000000000000000006020830152604082019050919050565b6000614d1a6029836158a2565b91507f4552433732313a207472616e73666572206f6620746f6b656e2074686174206960008301527f73206e6f74206f776e00000000000000000000000000000000000000000000006020830152604082019050919050565b6000614d80602f836158a2565b91507f4552433732314d657461646174613a2055524920717565727920666f72206e6f60008301527f6e6578697374656e7420746f6b656e00000000000000000000000000000000006020830152604082019050919050565b6000614de66021836158a2565b91507f4552433732313a20617070726f76616c20746f2063757272656e74206f776e6560008301527f72000000000000000000000000000000000000000000000000000000000000006020830152604082019050919050565b6000614e4c6007836158b3565b91507f6368616f746963000000000000000000000000000000000000000000000000006000830152600782019050919050565b6000614e8c6031836158a2565b91507f4552433732313a207472616e736665722063616c6c6572206973206e6f74206f60008301527f776e6572206e6f7220617070726f7665640000000000000000000000000000006020830152604082019050919050565b6000614ef2602c836158a2565b91507f455243373231456e756d657261626c653a20676c6f62616c20696e646578206f60008301527f7574206f6620626f756e647300000000000000000000000000000000000000006020830152604082019050919050565b6000614f586017836158b3565b91507f416363657373436f6e74726f6c3a206163636f756e74200000000000000000006000830152601782019050919050565b6000614f98603d836158a2565b91507f4552433732315072657365744d696e7465725061757365724175746f49643a2060008301527f6d7573742068617665206d696e74657220726f6c6520746f206d696e740000006020830152604082019050919050565b6000614ffe6030836158a2565b91507f4552433732314275726e61626c653a2063616c6c6572206973206e6f74206f7760008301527f6e6572206e6f7220617070726f766564000000000000000000000000000000006020830152604082019050919050565b6000615064602e836158a2565b91507f4572726f7220696e20796f75722062616c616e6365206163636f756e74206f7260008301527f20616d6f756e742070617965642e0000000000000000000000000000000000006020830152604082019050919050565b60006150ca6040836158a2565b91507f4552433732315072657365744d696e7465725061757365724175746f49643a2060008301527f6d75737420686176652070617573657220726f6c6520746f20756e70617573656020830152604082019050919050565b60006151306011836158b3565b91507f206973206d697373696e6720726f6c65200000000000000000000000000000006000830152601182019050919050565b6000615170602f836158a2565b91507f416363657373436f6e74726f6c3a2063616e206f6e6c792072656e6f756e636560008301527f20726f6c657320666f722073656c6600000000000000000000000000000000006020830152604082019050919050565b6151d281615a59565b82525050565b6151e96151e482615a59565b615bb6565b82525050565b60006151fb828561467a565b9150615207828461467a565b91508190509392505050565b600061521e82614f4b565b915061522a828561467a565b915061523582615123565b9150615241828461467a565b91508190509392505050565b600061525982866151d8565b60208201915061526982856145d3565b60148201915061527982846151d8565b60208201915061528882614e3f565b9150819050949350505050565b60006152a182866151d8565b6020820191506152b182856151d8565b6020820191506152c182846145ad565b601482019150819050949350505050565b60006020820190506152e760008301846145c4565b92915050565b600060608201905061530260008301866145c4565b61530f602083018561459e565b61531c60408301846151c9565b949350505050565b600060608201905061533960008301866145c4565b61534660208301856145c4565b61535360408301846151c9565b949350505050565b600060808201905061537060008301876145c4565b61537d60208301866145c4565b61538a60408301856151c9565b818103606083015261539c8184614608565b905095945050505050565b60006040820190506153bc60008301856145c4565b6153c960208301846151c9565b9392505050565b60006020820190506153e560008301846145ea565b92915050565b600060208201905061540060008301846145f9565b92915050565b600060208201905081810360008301526154208184614641565b905092915050565b60006020820190508181036000830152615441816146ab565b9050919050565b6000602082019050818103600083015261546181614711565b9050919050565b6000602082019050818103600083015261548181614751565b9050919050565b600060208201905081810360008301526154a1816147b7565b9050919050565b600060208201905081810360008301526154c1816147f7565b9050919050565b600060208201905081810360008301526154e18161485d565b9050919050565b60006020820190508181036000830152615501816148c3565b9050919050565b6000602082019050818103600083015261552181614903565b9050919050565b6000602082019050818103600083015261554181614969565b9050919050565b60006020820190508181036000830152615561816149cf565b9050919050565b6000602082019050818103600083015261558181614a0f565b9050919050565b600060208201905081810360008301526155a181614a4f565b9050919050565b600060208201905081810360008301526155c181614ab5565b9050919050565b600060208201905081810360008301526155e181614af5565b9050919050565b6000602082019050818103600083015261560181614b35565b9050919050565b6000602082019050818103600083015261562181614b9b565b9050919050565b6000602082019050818103600083015261564181614c01565b9050919050565b6000602082019050818103600083015261566181614c67565b9050919050565b6000602082019050818103600083015261568181614ca7565b9050919050565b600060208201905081810360008301526156a181614d0d565b9050919050565b600060208201905081810360008301526156c181614d73565b9050919050565b600060208201905081810360008301526156e181614dd9565b9050919050565b6000602082019050818103600083015261570181614e7f565b9050919050565b6000602082019050818103600083015261572181614ee5565b9050919050565b6000602082019050818103600083015261574181614f8b565b9050919050565b6000602082019050818103600083015261576181614ff1565b9050919050565b6000602082019050818103600083015261578181615057565b9050919050565b600060208201905081810360008301526157a1816150bd565b9050919050565b600060208201905081810360008301526157c181615163565b9050919050565b60006020820190506157dd60008301846151c9565b92915050565b60006060820190506157f860008301866151c9565b61580560208301856151c9565b61581260408301846151c9565b949350505050565b6000604051905081810181811067ffffffffffffffff8211171561584157615840615c7e565b5b8060405250919050565b600067ffffffffffffffff82111561586657615865615c7e565b5b601f19601f8301169050602081019050919050565b600081519050919050565b600081519050919050565b600082825260208201905092915050565b600082825260208201905092915050565b600081905092915050565b60006158c982615a59565b91506158d483615a59565b9250827fffffffffffffffffffffffffffffffffffffffffffffffffffffffffffffffff0382111561590957615908615bf1565b5b828201905092915050565b600061591f82615a59565b915061592a83615a59565b92508261593a57615939615c20565b5b828204905092915050565b600061595082615a59565b915061595b83615a59565b9250817fffffffffffffffffffffffffffffffffffffffffffffffffffffffffffffffff048311821515161561599457615993615bf1565b5b828202905092915050565b60006159aa82615a59565b91506159b583615a59565b9250828210156159c8576159c7615bf1565b5b828203905092915050565b60006159de82615a39565b9050919050565b60006159f082615a39565b9050919050565b60008115159050919050565b6000819050919050565b60007fffffffff0000000000000000000000000000000000000000000000000000000082169050919050565b600073ffffffffffffffffffffffffffffffffffffffff82169050919050565b6000819050919050565b6000615a6e82615a75565b9050919050565b6000615a8082615a87565b9050919050565b6000615a9282615a39565b9050919050565b82818337600083830152505050565b60005b83811015615ac6578082015181840152602081019050615aab565b83811115615ad5576000848401525b50505050565b6000615ae682615a59565b91506000821415615afa57615af9615bf1565b5b600182039050919050565b60006002820490506001821680615b1d57607f821691505b60208210811415615b3157615b30615c4f565b5b50919050565b6000615b4282615a59565b91507fffffffffffffffffffffffffffffffffffffffffffffffffffffffffffffffff821415615b7557615b74615bf1565b5b600182019050919050565b6000615b8b82615ba4565b9050919050565b6000615b9d82615ba4565b9050919050565b6000615baf82615cbe565b9050919050565b6000819050919050565b6000615bcb82615a59565b9150615bd683615a59565b925082615be657615be5615c20565b5b828206905092915050565b7f4e487b7100000000000000000000000000000000000000000000000000000000600052601160045260246000fd5b7f4e487b7100000000000000000000000000000000000000000000000000000000600052601260045260246000fd5b7f4e487b7100000000000000000000000000000000000000000000000000000000600052602260045260246000fd5b7f4e487b7100000000000000000000000000000000000000000000000000000000600052604160045260246000fd5b6000601f19601f8301169050919050565b60006c0100000000000000000000000082029050919050565b615ce0816159d3565b8114615ceb57600080fd5b50565b615cf7816159f7565b8114615d0257600080fd5b50565b615d0e81615a03565b8114615d1957600080fd5b50565b615d2581615a0d565b8114615d3057600080fd5b50565b615d3c81615a59565b8114615d4757600080fd5b5056fea26469706673582212203b19821224760add5fab885815492430af3f329dd9742d2d5dfa763dc04f06dd64736f6c63430008000033",
  "immutableReferences": {},
  "source": "pragma solidity ^0.8.0;\n\n//Basic library\nimport \"./Migrations.sol\";\nimport \"@openzeppelin/contracts/token/ERC20/IERC20.sol\";\nimport \"@openzeppelin/contracts/token/ERC721/presets/ERC721PresetMinterPauserAutoId.sol\";\n\n//\tSPDX-License-Identifier: CC-BY-NC-4.0\n//\tAuthor: Pablo Vallejo\n\ncontract DeepNFT is Migrations, ERC721PresetMinterPauserAutoId {\n \t//Declaration of CHAOS (as IERC20) and other parameters\n\tIERC20 chaos;\n\tuint256 unity;\n\tuint256 maxId;\n\tuint256 minAmount;\n\tuint256 maxAmount;\n\tconstructor(address _chaosAddress) ERC721PresetMinterPauserAutoId(\"DeepNFT\", \"DEEP\", \"https://www.chaoticbcn.com/deep/\"){\n\t\tchaos = IERC20(_chaosAddress);\n\t\tunity = 10 ** 18;\n\t\tmaxId = 0;\n\t\tminAmount = 50 * unity;\n\t\tmaxAmount = 1000 * unity;\n\n\t\t//mint for ERC721\n\t\t_mint(msg.sender, 18);\n\t} \n\treceive() external payable{}\n\t//Is alive mapping\n\tmapping (uint256 => uint256) private isAlive;\n\tmapping (address => uint256[]) public ownerToIds;\n\n\t//User help to do random number\n\tmapping (address => uint256) private addressToId;\n\tmapping (uint256 => address) private idToAddress;\n\t//Add to User mapping\n\tmodifier addUser() { \n\t\tif(addressToId[msg.sender] == 0){\n\t\t\taddressToId[msg.sender] = maxId;\n\t\t\tidToAddress[maxId] = msg.sender;\n\t\t\tmaxId++;\n\t\t}\n\t\t_; \n\t}\n\t//Random Generator\n\tfunction random_rtq(uint256 _amount) internal addUser returns(uint256 _result){//Signature 0x00003147\n\t\tuint256 auxAmount = _amount - (_amount % unity);\n\t\tuint256 x = uint256(keccak256(abi.encodePacked(block.timestamp, msg.sender, block.number, \"chaotic\")));//Initial seed + time + caller address + block number\n\t\tuint256 blockHashNow = uint256(blockhash(block.number - 1));//BlockHash\n\t\tx = x % maxId;//Number must be bellow maxId obviously\n\t\tx = uint256(uint160(idToAddress[x]));//Random address is selected and tranformed to uint256\n\t\tx = uint256(keccak256(abi.encodePacked(blockHashNow, x, block.coinbase)));//The implementation of BlockHash and the miner address, just for fun\n\t\tx = x - (x % 100); //aixo s'ha d'arreglar\n\t\tx = x / auxAmount;\n\t\tx = x % unity;\n\t\treturn (x);\n\t}\n\t//Token Generator  FALTA EL EVENTO\n\tfunction buyToken(uint256 _amount) public returns(uint256 _tokenId){\n\t\trequire (chaos.balanceOf(msg.sender) >= _amount && _amount >= minAmount && _amount <= maxAmount, \"Error in your balance account or amount payed.\");\n\t\t//Find a new SEED (x)\n\t\tuint256 x = random_rtq(_amount);\n\t\twhile (isAlive[x] != 0) {\n\t\t\tx = random_rtq(_amount);\n\t\t}\n\t\t//Transfer the amount as costs\n\t\tchaos.transferFrom(msg.sender, payable(this), _amount);\n\t\t//Mint the token and block their value into isAlive mapping\n\t\t_mint(msg.sender, x);\n\t\tisAlive[x] = _amount;\n\t\treturn x;\n\t}\n\tfunction isFlowerAlive(uint256 _tokenId) external view returns(uint256 _value){\n\t\treturn (isAlive[_tokenId]);\n\t}\n\t//Set Up\n\tfunction createTokenOwner(uint256 _tokenId, uint256 _value) external onlyOwner {\n\t\trequire (isAlive[_tokenId] == 0, \"Flower already alive.\");\n\t\t_mint(msg.sender, _tokenId);\n\t\tisAlive[_tokenId] = _value;\n\t}\n\tfunction takeBenefits() external onlyOwner{\n\t\tuint256 x = uint256(chaos.balanceOf(address(this)));\n\t\tchaos.approve(msg.sender, x);\n\t\tchaos.transferFrom(address(this), msg.sender, x);\n\t}\n\tfunction newOwner(address _newOwnerAddres) external onlyOwner{\n\t\tchangeOwner(_newOwnerAddres);\n\t}\n\tfunction changeParams(uint256 _minAmount, uint256 _maxAmount) external onlyOwner{\n\t\tminAmount = _minAmount;\n\t\tmaxAmount = _maxAmount;\n\t}\n\tfunction getParams() external view returns(uint256 _maxId, uint256 _minAmount, uint256 _maxAmount){\n\t\treturn (maxId, minAmount, maxAmount);\n\t}\n\n}\n\n\n\n",
  "sourcePath": "/home/chaotic/Desktop/Project/chaoticTutorialERC721/contracts/DeepNFT.sol",
  "compiler": {
    "name": "solc",
    "version": "0.8.0+commit.c7dfd78e.Emscripten.clang"
  },
  "schemaVersion": "3.4.1",
  "updatedAt": "2021-09-13T22:25:37.236Z",
  "networkType": "ethereum",
  "devdoc": {
    "kind": "dev",
    "methods": {
      "approve(address,uint256)": {
        "details": "See {IERC721-approve}."
      },
      "balanceOf(address)": {
        "details": "See {IERC721-balanceOf}."
      },
      "burn(uint256)": {
        "details": "Burns `tokenId`. See {ERC721-_burn}. Requirements: - The caller must own `tokenId` or be an approved operator."
      },
      "getApproved(uint256)": {
        "details": "See {IERC721-getApproved}."
      },
      "getRoleAdmin(bytes32)": {
        "details": "Returns the admin role that controls `role`. See {grantRole} and {revokeRole}. To change a role's admin, use {_setRoleAdmin}."
      },
      "getRoleMember(bytes32,uint256)": {
        "details": "Returns one of the accounts that have `role`. `index` must be a value between 0 and {getRoleMemberCount}, non-inclusive. Role bearers are not sorted in any particular way, and their ordering may change at any point. WARNING: When using {getRoleMember} and {getRoleMemberCount}, make sure you perform all queries on the same block. See the following https://forum.openzeppelin.com/t/iterating-over-elements-on-enumerableset-in-openzeppelin-contracts/2296[forum post] for more information."
      },
      "getRoleMemberCount(bytes32)": {
        "details": "Returns the number of accounts that have `role`. Can be used together with {getRoleMember} to enumerate all bearers of a role."
      },
      "grantRole(bytes32,address)": {
        "details": "Overload {grantRole} to track enumerable memberships"
      },
      "hasRole(bytes32,address)": {
        "details": "Returns `true` if `account` has been granted `role`."
      },
      "isApprovedForAll(address,address)": {
        "details": "See {IERC721-isApprovedForAll}."
      },
      "mint(address)": {
        "details": "Creates a new token for `to`. Its token ID will be automatically assigned (and available on the emitted {IERC721-Transfer} event), and the token URI autogenerated based on the base URI passed at construction. See {ERC721-_mint}. Requirements: - the caller must have the `MINTER_ROLE`."
      },
      "name()": {
        "details": "See {IERC721Metadata-name}."
      },
      "ownerOf(uint256)": {
        "details": "See {IERC721-ownerOf}."
      },
      "pause()": {
        "details": "Pauses all token transfers. See {ERC721Pausable} and {Pausable-_pause}. Requirements: - the caller must have the `PAUSER_ROLE`."
      },
      "paused()": {
        "details": "Returns true if the contract is paused, and false otherwise."
      },
      "renounceRole(bytes32,address)": {
        "details": "Overload {renounceRole} to track enumerable memberships"
      },
      "revokeRole(bytes32,address)": {
        "details": "Overload {revokeRole} to track enumerable memberships"
      },
      "safeTransferFrom(address,address,uint256)": {
        "details": "See {IERC721-safeTransferFrom}."
      },
      "safeTransferFrom(address,address,uint256,bytes)": {
        "details": "See {IERC721-safeTransferFrom}."
      },
      "setApprovalForAll(address,bool)": {
        "details": "See {IERC721-setApprovalForAll}."
      },
      "supportsInterface(bytes4)": {
        "details": "See {IERC165-supportsInterface}."
      },
      "symbol()": {
        "details": "See {IERC721Metadata-symbol}."
      },
      "tokenByIndex(uint256)": {
        "details": "See {IERC721Enumerable-tokenByIndex}."
      },
      "tokenOfOwnerByIndex(address,uint256)": {
        "details": "See {IERC721Enumerable-tokenOfOwnerByIndex}."
      },
      "tokenURI(uint256)": {
        "details": "See {IERC721Metadata-tokenURI}."
      },
      "totalSupply()": {
        "details": "See {IERC721Enumerable-totalSupply}."
      },
      "transferFrom(address,address,uint256)": {
        "details": "See {IERC721-transferFrom}."
      },
      "unpause()": {
        "details": "Unpauses all token transfers. See {ERC721Pausable} and {Pausable-_unpause}. Requirements: - the caller must have the `PAUSER_ROLE`."
      }
    },
    "version": 1
  },
  "userdoc": {
    "kind": "user",
    "methods": {},
    "version": 1
  }
}