{
  "contractName": "ChaoticToken",
  "abi": [
    {
      "inputs": [],
      "stateMutability": "nonpayable",
      "type": "constructor"
    },
    {
      "anonymous": false,
      "inputs": [
        {
          "indexed": true,
          "internalType": "address",
          "name": "owner",
          "type": "address"
        },
        {
          "indexed": true,
          "internalType": "address",
          "name": "spender",
          "type": "address"
        },
        {
          "indexed": false,
          "internalType": "uint256",
          "name": "value",
          "type": "uint256"
        }
      ],
      "name": "Approval",
      "type": "event"
    },
    {
      "anonymous": false,
      "inputs": [
        {
          "indexed": true,
          "internalType": "address",
          "name": "from",
          "type": "address"
        },
        {
          "indexed": true,
          "internalType": "address",
          "name": "to",
          "type": "address"
        },
        {
          "indexed": false,
          "internalType": "uint256",
          "name": "value",
          "type": "uint256"
        }
      ],
      "name": "Transfer",
      "type": "event"
    },
    {
      "inputs": [
        {
          "internalType": "address",
          "name": "owner",
          "type": "address"
        },
        {
          "internalType": "address",
          "name": "spender",
          "type": "address"
        }
      ],
      "name": "allowance",
      "outputs": [
        {
          "internalType": "uint256",
          "name": "",
          "type": "uint256"
        }
      ],
      "stateMutability": "view",
      "type": "function",
      "constant": true
    },
    {
      "inputs": [
        {
          "internalType": "address",
          "name": "spender",
          "type": "address"
        },
        {
          "internalType": "uint256",
          "name": "amount",
          "type": "uint256"
        }
      ],
      "name": "approve",
      "outputs": [
        {
          "internalType": "bool",
          "name": "",
          "type": "bool"
        }
      ],
      "stateMutability": "nonpayable",
      "type": "function"
    },
    {
      "inputs": [
        {
          "internalType": "address",
          "name": "account",
          "type": "address"
        }
      ],
      "name": "balanceOf",
      "outputs": [
        {
          "internalType": "uint256",
          "name": "",
          "type": "uint256"
        }
      ],
      "stateMutability": "view",
      "type": "function",
      "constant": true
    },
    {
      "inputs": [
        {
          "internalType": "address",
          "name": "newOwner",
          "type": "address"
        }
      ],
      "name": "changeOwner",
      "outputs": [],
      "stateMutability": "nonpayable",
      "type": "function"
    },
    {
      "inputs": [],
      "name": "decimals",
      "outputs": [
        {
          "internalType": "uint8",
          "name": "",
          "type": "uint8"
        }
      ],
      "stateMutability": "view",
      "type": "function",
      "constant": true
    },
    {
      "inputs": [
        {
          "internalType": "address",
          "name": "spender",
          "type": "address"
        },
        {
          "internalType": "uint256",
          "name": "subtractedValue",
          "type": "uint256"
        }
      ],
      "name": "decreaseAllowance",
      "outputs": [
        {
          "internalType": "bool",
          "name": "",
          "type": "bool"
        }
      ],
      "stateMutability": "nonpayable",
      "type": "function"
    },
    {
      "inputs": [
        {
          "internalType": "address",
          "name": "spender",
          "type": "address"
        },
        {
          "internalType": "uint256",
          "name": "addedValue",
          "type": "uint256"
        }
      ],
      "name": "increaseAllowance",
      "outputs": [
        {
          "internalType": "bool",
          "name": "",
          "type": "bool"
        }
      ],
      "stateMutability": "nonpayable",
      "type": "function"
    },
    {
      "inputs": [],
      "name": "last_completed_migration",
      "outputs": [
        {
          "internalType": "uint256",
          "name": "",
          "type": "uint256"
        }
      ],
      "stateMutability": "view",
      "type": "function",
      "constant": true
    },
    {
      "inputs": [],
      "name": "name",
      "outputs": [
        {
          "internalType": "string",
          "name": "",
          "type": "string"
        }
      ],
      "stateMutability": "view",
      "type": "function",
      "constant": true
    },
    {
      "inputs": [],
      "name": "owner",
      "outputs": [
        {
          "internalType": "address",
          "name": "",
          "type": "address"
        }
      ],
      "stateMutability": "view",
      "type": "function",
      "constant": true
    },
    {
      "inputs": [
        {
          "internalType": "uint256",
          "name": "completed",
          "type": "uint256"
        }
      ],
      "name": "setCompleted",
      "outputs": [],
      "stateMutability": "nonpayable",
      "type": "function"
    },
    {
      "inputs": [],
      "name": "symbol",
      "outputs": [
        {
          "internalType": "string",
          "name": "",
          "type": "string"
        }
      ],
      "stateMutability": "view",
      "type": "function",
      "constant": true
    },
    {
      "inputs": [],
      "name": "totalSupply",
      "outputs": [
        {
          "internalType": "uint256",
          "name": "",
          "type": "uint256"
        }
      ],
      "stateMutability": "view",
      "type": "function",
      "constant": true
    },
    {
      "inputs": [
        {
          "internalType": "address",
          "name": "recipient",
          "type": "address"
        },
        {
          "internalType": "uint256",
          "name": "amount",
          "type": "uint256"
        }
      ],
      "name": "transfer",
      "outputs": [
        {
          "internalType": "bool",
          "name": "",
          "type": "bool"
        }
      ],
      "stateMutability": "nonpayable",
      "type": "function"
    },
    {
      "inputs": [
        {
          "internalType": "address",
          "name": "sender",
          "type": "address"
        },
        {
          "internalType": "address",
          "name": "recipient",
          "type": "address"
        },
        {
          "internalType": "uint256",
          "name": "amount",
          "type": "uint256"
        }
      ],
      "name": "transferFrom",
      "outputs": [
        {
          "internalType": "bool",
          "name": "",
          "type": "bool"
        }
      ],
      "stateMutability": "nonpayable",
      "type": "function"
    },
    {
      "stateMutability": "payable",
      "type": "receive",
      "payable": true
    },
    {
      "inputs": [],
      "name": "generate",
      "outputs": [],
      "stateMutability": "nonpayable",
      "type": "function"
    },
    {
      "inputs": [],
      "name": "getTotalSupply",
      "outputs": [
        {
          "internalType": "uint256",
          "name": "_totalSupply",
          "type": "uint256"
        }
      ],
      "stateMutability": "view",
      "type": "function",
      "constant": true
    },
    {
      "inputs": [
        {
          "internalType": "address",
          "name": "_newOwnerAddres",
          "type": "address"
        }
      ],
      "name": "newOwner",
      "outputs": [],
      "stateMutability": "nonpayable",
      "type": "function"
    }
  ],
  "bytecode": "0x60806040523480156200001157600080fd5b506040518060400160405280600681526020017f4348414f533100000000000000000000000000000000000000000000000000008152506040518060400160405280600581526020017f58ce9fcea3000000000000000000000000000000000000000000000000000000815250336000806101000a81548173ffffffffffffffffffffffffffffffffffffffff021916908373ffffffffffffffffffffffffffffffffffffffff1602179055508160059080519060200190620000d6929190620002ed565b508060069080519060200190620000ef929190620002ed565b505050670de0b6b3a7640000600881905550600854630112a8806200011591906200049d565b600781905550600854620f42406200012e91906200049d565b600981905550620001513360075462000157640100000000026401000000009004565b6200059c565b600073ffffffffffffffffffffffffffffffffffffffff168273ffffffffffffffffffffffffffffffffffffffff161415620001ca576040517f08c379a0000000000000000000000000000000000000000000000000000000008152600401620001c190620003f0565b60405180910390fd5b620001e760008383620002e3640100000000026401000000009004565b8060046000828254620001fb919062000440565b9250508190555080600260008473ffffffffffffffffffffffffffffffffffffffff1673ffffffffffffffffffffffffffffffffffffffff168152602001908152602001600020600082825462000253919062000440565b925050819055508173ffffffffffffffffffffffffffffffffffffffff16600073ffffffffffffffffffffffffffffffffffffffff167fddf252ad1be2c89b69c2b068fc378daa952ba7f163c4a11628f55a4df523b3ef83604051620002ba919062000412565b60405180910390a3620002df60008383620002e8640100000000026401000000009004565b5050565b505050565b505050565b828054620002fb9062000508565b90600052602060002090601f0160209004810192826200031f57600085556200036b565b82601f106200033a57805160ff19168380011785556200036b565b828001600101855582156200036b579182015b828111156200036a5782518255916020019190600101906200034d565b5b5090506200037a91906200037e565b5090565b5b80821115620003995760008160009055506001016200037f565b5090565b6000620003ac601f836200042f565b91507f45524332303a206d696e7420746f20746865207a65726f2061646472657373006000830152602082019050919050565b620003ea81620004fe565b82525050565b600060208201905081810360008301526200040b816200039d565b9050919050565b6000602082019050620004296000830184620003df565b92915050565b600082825260208201905092915050565b60006200044d82620004fe565b91506200045a83620004fe565b9250827fffffffffffffffffffffffffffffffffffffffffffffffffffffffffffffffff038211156200049257620004916200053e565b5b828201905092915050565b6000620004aa82620004fe565b9150620004b783620004fe565b9250817fffffffffffffffffffffffffffffffffffffffffffffffffffffffffffffffff0483118215151615620004f357620004f26200053e565b5b828202905092915050565b6000819050919050565b600060028204905060018216806200052157607f821691505b602082108114156200053857620005376200056d565b5b50919050565b7f4e487b7100000000000000000000000000000000000000000000000000000000600052601160045260246000fd5b7f4e487b7100000000000000000000000000000000000000000000000000000000600052602260045260246000fd5b6119b580620005ac6000396000f3fe60806040526004361061012a576000357c01000000000000000000000000000000000000000000000000000000009004806385952454116100b2578063a6f9dae111610081578063a6f9dae1146103a9578063a9059cbb146103d2578063c4e41b221461040f578063dd62ed3e1461043a578063fdacd5761461047757610131565b806385952454146102ed5780638da5cb5b1461031657806395d89b4114610341578063a457c2d71461036c57610131565b80632a1bbc34116100f95780632a1bbc3414610206578063313ce5671461021d5780633950935114610248578063445df0ac1461028557806370a08231146102b057610131565b806306fdde0314610136578063095ea7b31461016157806318160ddd1461019e57806323b872dd146101c957610131565b3661013157005b600080fd5b34801561014257600080fd5b5061014b6104a0565b604051610158919061163e565b60405180910390f35b34801561016d57600080fd5b50610188600480360381019061018391906111e4565b610532565b6040516101959190611623565b60405180910390f35b3480156101aa57600080fd5b506101b3610550565b6040516101c09190611780565b60405180910390f35b3480156101d557600080fd5b506101f060048036038101906101eb9190611195565b61055a565b6040516101fd9190611623565b60405180910390f35b34801561021257600080fd5b5061021b610652565b005b34801561022957600080fd5b5061023261067b565b60405161023f919061179b565b60405180910390f35b34801561025457600080fd5b5061026f600480360381019061026a91906111e4565b610684565b60405161027c9190611623565b60405180910390f35b34801561029157600080fd5b5061029a610730565b6040516102a79190611780565b60405180910390f35b3480156102bc57600080fd5b506102d760048036038101906102d29190611130565b610736565b6040516102e49190611780565b60405180910390f35b3480156102f957600080fd5b50610314600480360381019061030f9190611130565b61077f565b005b34801561032257600080fd5b5061032b610819565b6040516103389190611608565b60405180910390f35b34801561034d57600080fd5b5061035661083d565b604051610363919061163e565b60405180910390f35b34801561037857600080fd5b50610393600480360381019061038e91906111e4565b6108cf565b6040516103a09190611623565b60405180910390f35b3480156103b557600080fd5b506103d060048036038101906103cb9190611130565b6109ba565b005b3480156103de57600080fd5b506103f960048036038101906103f491906111e4565b610a8b565b6040516104069190611623565b60405180910390f35b34801561041b57600080fd5b50610424610aa9565b6040516104319190611780565b60405180910390f35b34801561044657600080fd5b50610461600480360381019061045c9190611159565b610ab3565b60405161046e9190611780565b60405180910390f35b34801561048357600080fd5b5061049e60048036038101906104999190611220565b610b3a565b005b6060600580546104af906118b0565b80601f01602080910402602001604051908101604052809291908181526020018280546104db906118b0565b80156105285780601f106104fd57610100808354040283529160200191610528565b820191906000526020600020905b81548152906001019060200180831161050b57829003601f168201915b5050505050905090565b600061054661053f610b44565b8484610b4c565b6001905092915050565b6000600454905090565b6000610567848484610d17565b6000600360008673ffffffffffffffffffffffffffffffffffffffff1673ffffffffffffffffffffffffffffffffffffffff16815260200190815260200160002060006105b2610b44565b73ffffffffffffffffffffffffffffffffffffffff1673ffffffffffffffffffffffffffffffffffffffff16815260200190815260200160002054905082811015610632576040517f08c379a0000000000000000000000000000000000000000000000000000000008152600401610629906116e0565b60405180910390fd5b6106468561063e610b44565b858403610b4c565b60019150509392505050565b61065e33600954610f9b565b6009546007600082825461067291906117d2565b92505081905550565b60006012905090565b6000610726610691610b44565b84846003600061069f610b44565b73ffffffffffffffffffffffffffffffffffffffff1673ffffffffffffffffffffffffffffffffffffffff16815260200190815260200160002060008873ffffffffffffffffffffffffffffffffffffffff1673ffffffffffffffffffffffffffffffffffffffff1681526020019081526020016000205461072191906117d2565b610b4c565b6001905092915050565b60015481565b6000600260008373ffffffffffffffffffffffffffffffffffffffff1673ffffffffffffffffffffffffffffffffffffffff168152602001908152602001600020549050919050565b60008054906101000a900473ffffffffffffffffffffffffffffffffffffffff1673ffffffffffffffffffffffffffffffffffffffff163373ffffffffffffffffffffffffffffffffffffffff161461080d576040517f08c379a0000000000000000000000000000000000000000000000000000000008152600401610804906116c0565b60405180910390fd5b610816816109ba565b50565b60008054906101000a900473ffffffffffffffffffffffffffffffffffffffff1681565b60606006805461084c906118b0565b80601f0160208091040260200160405190810160405280929190818152602001828054610878906118b0565b80156108c55780601f1061089a576101008083540402835291602001916108c5565b820191906000526020600020905b8154815290600101906020018083116108a857829003601f168201915b5050505050905090565b600080600360006108de610b44565b73ffffffffffffffffffffffffffffffffffffffff1673ffffffffffffffffffffffffffffffffffffffff16815260200190815260200160002060008573ffffffffffffffffffffffffffffffffffffffff1673ffffffffffffffffffffffffffffffffffffffff1681526020019081526020016000205490508281101561099b576040517f08c379a000000000000000000000000000000000000000000000000000000000815260040161099290611740565b60405180910390fd5b6109af6109a6610b44565b85858403610b4c565b600191505092915050565b60008054906101000a900473ffffffffffffffffffffffffffffffffffffffff1673ffffffffffffffffffffffffffffffffffffffff163373ffffffffffffffffffffffffffffffffffffffff1614610a48576040517f08c379a0000000000000000000000000000000000000000000000000000000008152600401610a3f906116c0565b60405180910390fd5b806000806101000a81548173ffffffffffffffffffffffffffffffffffffffff021916908373ffffffffffffffffffffffffffffffffffffffff16021790555050565b6000610a9f610a98610b44565b8484610d17565b6001905092915050565b6000600754905090565b6000600360008473ffffffffffffffffffffffffffffffffffffffff1673ffffffffffffffffffffffffffffffffffffffff16815260200190815260200160002060008373ffffffffffffffffffffffffffffffffffffffff1673ffffffffffffffffffffffffffffffffffffffff16815260200190815260200160002054905092915050565b8060018190555050565b600033905090565b600073ffffffffffffffffffffffffffffffffffffffff168373ffffffffffffffffffffffffffffffffffffffff161415610bbc576040517f08c379a0000000000000000000000000000000000000000000000000000000008152600401610bb390611720565b60405180910390fd5b600073ffffffffffffffffffffffffffffffffffffffff168273ffffffffffffffffffffffffffffffffffffffff161415610c2c576040517f08c379a0000000000000000000000000000000000000000000000000000000008152600401610c2390611680565b60405180910390fd5b80600360008573ffffffffffffffffffffffffffffffffffffffff1673ffffffffffffffffffffffffffffffffffffffff16815260200190815260200160002060008473ffffffffffffffffffffffffffffffffffffffff1673ffffffffffffffffffffffffffffffffffffffff168152602001908152602001600020819055508173ffffffffffffffffffffffffffffffffffffffff168373ffffffffffffffffffffffffffffffffffffffff167f8c5be1e5ebec7d5bd14f71427d1e84f3dd0314c0f7b2291e5b200ac8c7c3b92583604051610d0a9190611780565b60405180910390a3505050565b600073ffffffffffffffffffffffffffffffffffffffff168373ffffffffffffffffffffffffffffffffffffffff161415610d87576040517f08c379a0000000000000000000000000000000000000000000000000000000008152600401610d7e90611700565b60405180910390fd5b600073ffffffffffffffffffffffffffffffffffffffff168273ffffffffffffffffffffffffffffffffffffffff161415610df7576040517f08c379a0000000000000000000000000000000000000000000000000000000008152600401610dee90611660565b60405180910390fd5b610e028383836110fc565b6000600260008573ffffffffffffffffffffffffffffffffffffffff1673ffffffffffffffffffffffffffffffffffffffff16815260200190815260200160002054905081811015610e89576040517f08c379a0000000000000000000000000000000000000000000000000000000008152600401610e80906116a0565b60405180910390fd5b818103600260008673ffffffffffffffffffffffffffffffffffffffff1673ffffffffffffffffffffffffffffffffffffffff1681526020019081526020016000208190555081600260008573ffffffffffffffffffffffffffffffffffffffff1673ffffffffffffffffffffffffffffffffffffffff1681526020019081526020016000206000828254610f1e91906117d2565b925050819055508273ffffffffffffffffffffffffffffffffffffffff168473ffffffffffffffffffffffffffffffffffffffff167fddf252ad1be2c89b69c2b068fc378daa952ba7f163c4a11628f55a4df523b3ef84604051610f829190611780565b60405180910390a3610f95848484611101565b50505050565b600073ffffffffffffffffffffffffffffffffffffffff168273ffffffffffffffffffffffffffffffffffffffff16141561100b576040517f08c379a000000000000000000000000000000000000000000000000000000000815260040161100290611760565b60405180910390fd5b611017600083836110fc565b806004600082825461102991906117d2565b9250508190555080600260008473ffffffffffffffffffffffffffffffffffffffff1673ffffffffffffffffffffffffffffffffffffffff168152602001908152602001600020600082825461107f91906117d2565b925050819055508173ffffffffffffffffffffffffffffffffffffffff16600073ffffffffffffffffffffffffffffffffffffffff167fddf252ad1be2c89b69c2b068fc378daa952ba7f163c4a11628f55a4df523b3ef836040516110e49190611780565b60405180910390a36110f860008383611101565b5050565b505050565b505050565b60008135905061111581611951565b92915050565b60008135905061112a81611968565b92915050565b60006020828403121561114257600080fd5b600061115084828501611106565b91505092915050565b6000806040838503121561116c57600080fd5b600061117a85828601611106565b925050602061118b85828601611106565b9150509250929050565b6000806000606084860312156111aa57600080fd5b60006111b886828701611106565b93505060206111c986828701611106565b92505060406111da8682870161111b565b9150509250925092565b600080604083850312156111f757600080fd5b600061120585828601611106565b92505060206112168582860161111b565b9150509250929050565b60006020828403121561123257600080fd5b60006112408482850161111b565b91505092915050565b61125281611828565b82525050565b6112618161183a565b82525050565b6000611272826117b6565b61127c81856117c1565b935061128c81856020860161187d565b61129581611940565b840191505092915050565b60006112ad6023836117c1565b91507f45524332303a207472616e7366657220746f20746865207a65726f206164647260008301527f65737300000000000000000000000000000000000000000000000000000000006020830152604082019050919050565b60006113136022836117c1565b91507f45524332303a20617070726f766520746f20746865207a65726f20616464726560008301527f73730000000000000000000000000000000000000000000000000000000000006020830152604082019050919050565b60006113796026836117c1565b91507f45524332303a207472616e7366657220616d6f756e742065786365656473206260008301527f616c616e636500000000000000000000000000000000000000000000000000006020830152604082019050919050565b60006113df6009836117c1565b91507f4e6f74204f776e657200000000000000000000000000000000000000000000006000830152602082019050919050565b600061141f6028836117c1565b91507f45524332303a207472616e7366657220616d6f756e742065786365656473206160008301527f6c6c6f77616e63650000000000000000000000000000000000000000000000006020830152604082019050919050565b60006114856025836117c1565b91507f45524332303a207472616e736665722066726f6d20746865207a65726f20616460008301527f64726573730000000000000000000000000000000000000000000000000000006020830152604082019050919050565b60006114eb6024836117c1565b91507f45524332303a20617070726f76652066726f6d20746865207a65726f2061646460008301527f72657373000000000000000000000000000000000000000000000000000000006020830152604082019050919050565b60006115516025836117c1565b91507f45524332303a2064656372656173656420616c6c6f77616e63652062656c6f7760008301527f207a65726f0000000000000000000000000000000000000000000000000000006020830152604082019050919050565b60006115b7601f836117c1565b91507f45524332303a206d696e7420746f20746865207a65726f2061646472657373006000830152602082019050919050565b6115f381611866565b82525050565b61160281611870565b82525050565b600060208201905061161d6000830184611249565b92915050565b60006020820190506116386000830184611258565b92915050565b600060208201905081810360008301526116588184611267565b905092915050565b60006020820190508181036000830152611679816112a0565b9050919050565b6000602082019050818103600083015261169981611306565b9050919050565b600060208201905081810360008301526116b98161136c565b9050919050565b600060208201905081810360008301526116d9816113d2565b9050919050565b600060208201905081810360008301526116f981611412565b9050919050565b6000602082019050818103600083015261171981611478565b9050919050565b60006020820190508181036000830152611739816114de565b9050919050565b6000602082019050818103600083015261175981611544565b9050919050565b60006020820190508181036000830152611779816115aa565b9050919050565b600060208201905061179560008301846115ea565b92915050565b60006020820190506117b060008301846115f9565b92915050565b600081519050919050565b600082825260208201905092915050565b60006117dd82611866565b91506117e883611866565b9250827fffffffffffffffffffffffffffffffffffffffffffffffffffffffffffffffff0382111561181d5761181c6118e2565b5b828201905092915050565b600061183382611846565b9050919050565b60008115159050919050565b600073ffffffffffffffffffffffffffffffffffffffff82169050919050565b6000819050919050565b600060ff82169050919050565b60005b8381101561189b578082015181840152602081019050611880565b838111156118aa576000848401525b50505050565b600060028204905060018216806118c857607f821691505b602082108114156118dc576118db611911565b5b50919050565b7f4e487b7100000000000000000000000000000000000000000000000000000000600052601160045260246000fd5b7f4e487b7100000000000000000000000000000000000000000000000000000000600052602260045260246000fd5b6000601f19601f8301169050919050565b61195a81611828565b811461196557600080fd5b50565b61197181611866565b811461197c57600080fd5b5056fea26469706673582212205a68911317907290e2ddf7aa4de4432bc0b673fc5879cae6fb31e67e0d47794364736f6c63430008000033",
  "immutableReferences": {},
  "source": "pragma solidity ^0.8.0;\r\n\r\n//Basic library\r\nimport \"./Migrations.sol\";\r\nimport \"@openzeppelin/contracts/token/ERC20/ERC20.sol\";\r\n\r\n//Here start Chaotic ERC20 Token version 1\r\n//I hope you enjoy it, if want to read or reuse that code you are free to go.\r\n\r\n//\tSPDX-License-Identifier: CC-BY-NC-4.0\r\n//\tAuthor: Pablo Vallejo\r\n\r\ncontract ChaoticToken is Migrations, ERC20{\r\n \t//Declaration of basic parameters\r\n \tuint256 totalContractSupply;\t//Initial Supply\r\n\r\n\tuint256 unity;\t\t//Unity 10^18\r\n\tuint256 supplyIncrement;\t//The amount of supply to mint\r\n\tconstructor() ERC20(\"CHAOS1\", \"\\x58\\xce\\x9f\\xce\\xa3\"){\r\n\t\tunity = 10 ** 18;\r\n\t\ttotalContractSupply = 18000000 * unity;\r\n\t\tsupplyIncrement = 1000000 * unity;\r\n\r\n\t\t//Initial Sypply MINT\r\n\t\t_mint(payable(msg.sender), totalContractSupply);\r\n\t}\r\n\treceive() external payable{}\r\n\t\r\n\t//We just need a mint function\r\n\tfunction generate() external{\r\n\t\t_mint(payable(msg.sender), supplyIncrement);\r\n\t\ttotalContractSupply += supplyIncrement;\r\n\t}\r\n\tfunction getTotalSupply() external view returns(uint256 _totalSupply){\r\n\t\treturn totalContractSupply;\r\n\t}\r\n\t//Function to change the owner\r\n\tfunction newOwner(address _newOwnerAddres) external onlyOwner{\r\n\t\tchangeOwner(_newOwnerAddres);\r\n\t}\r\n\t\r\n//Thanks to check this out, it's important that we keep a basic understanding on those tokens we use and buy, for that Ethereum BlockChain is one of the best ways.\r\n//See you on other DAPP !\r\n}\r\n\r\n\r\n\r\n",
  "sourcePath": "/home/chaotic/Desktop/Project/chaoticTutorialERC20/contracts/ChaoticToken.sol",
  "compiler": {
    "name": "solc",
    "version": "0.8.0+commit.c7dfd78e.Emscripten.clang"
  },
  "schemaVersion": "3.4.1",
  "updatedAt": "2021-09-13T21:44:36.944Z",
  "networkType": "ethereum",
  "devdoc": {
    "kind": "dev",
    "methods": {
      "allowance(address,address)": {
        "details": "See {IERC20-allowance}."
      },
      "approve(address,uint256)": {
        "details": "See {IERC20-approve}. Requirements: - `spender` cannot be the zero address."
      },
      "balanceOf(address)": {
        "details": "See {IERC20-balanceOf}."
      },
      "decimals()": {
        "details": "Returns the number of decimals used to get its user representation. For example, if `decimals` equals `2`, a balance of `505` tokens should be displayed to a user as `5.05` (`505 / 10 ** 2`). Tokens usually opt for a value of 18, imitating the relationship between Ether and Wei. This is the value {ERC20} uses, unless this function is overridden; NOTE: This information is only used for _display_ purposes: it in no way affects any of the arithmetic of the contract, including {IERC20-balanceOf} and {IERC20-transfer}."
      },
      "decreaseAllowance(address,uint256)": {
        "details": "Atomically decreases the allowance granted to `spender` by the caller. This is an alternative to {approve} that can be used as a mitigation for problems described in {IERC20-approve}. Emits an {Approval} event indicating the updated allowance. Requirements: - `spender` cannot be the zero address. - `spender` must have allowance for the caller of at least `subtractedValue`."
      },
      "increaseAllowance(address,uint256)": {
        "details": "Atomically increases the allowance granted to `spender` by the caller. This is an alternative to {approve} that can be used as a mitigation for problems described in {IERC20-approve}. Emits an {Approval} event indicating the updated allowance. Requirements: - `spender` cannot be the zero address."
      },
      "name()": {
        "details": "Returns the name of the token."
      },
      "symbol()": {
        "details": "Returns the symbol of the token, usually a shorter version of the name."
      },
      "totalSupply()": {
        "details": "See {IERC20-totalSupply}."
      },
      "transfer(address,uint256)": {
        "details": "See {IERC20-transfer}. Requirements: - `recipient` cannot be the zero address. - the caller must have a balance of at least `amount`."
      },
      "transferFrom(address,address,uint256)": {
        "details": "See {IERC20-transferFrom}. Emits an {Approval} event indicating the updated allowance. This is not required by the EIP. See the note at the beginning of {ERC20}. Requirements: - `sender` and `recipient` cannot be the zero address. - `sender` must have a balance of at least `amount`. - the caller must have allowance for ``sender``'s tokens of at least `amount`."
      }
    },
    "version": 1
  },
  "userdoc": {
    "kind": "user",
    "methods": {},
    "version": 1
  }
}